:040000008A15DB2959
:10000800FF00030E8301E3000A08E4008A01700878
:10001800A1000B1D1C28BF0A261F1328A5143F0882
:100028000A3A031D19280B27BF010B116330810001
:100038002108F00064088A00630E8300FF0E7F0E1B
:020048000900AD
:0A004A0000000000000000000800A4
:100054001D3083120313FC009130FD00FD0B30288A
:06006400FC0B302808002F
:10006A00423083120313FD00FD0B392800000800FB
:10007A0083160313A31B442883128612462883126D
:10008A0086168316231B4C28831206124E288312C7
:10009A0006168316A31A54288312061156288312A9
:1000AA0006158316231A5C28831286105E2883128B
:1000BA0086146218622805156328051185152520FE
:1000CA0085118316A3196C28831286126E2883124F
:1000DA008616831623197428831206127628831229
:1000EA0006168316A3187C28831206117E2883120B
:1000FA0006158316231884288312861086288312ED
:10010A00861462188A2805158B280511851525205D
:0E011A008511621C92282A20932835200800A7
:0E012800F201F101F001F801F30100300800CE
:100136007B15FB1FA5280130F300F201F101F00148
:08014600FA0DF20CFF30080075
:08014E00FA1FF2130030080053
:10015600FB14FB1FB528FF30F300F200F100F0009E
:08016600FA0DF20CFF30080055
:10016E00C928803083160313A000DC28C030A000FD
:10017E00DC289430A000DC28D430A000DC288030AD
:10018E00A000DC28831603132008013A0319B828AF
:10019E002008023A0319BD282008033A0319C02883
:1001AE002008043A0319C328C6282103F0002008AA
:1001BE00F0077008A0008312621470088316A30063
:1001CE003D20621083162208A3003D206214080011
:1001DE00A0017208031D04297108F2007008F100D5
:1001EE00F001A0157208031D04297108F200F10137
:1001FE00A01120167208031912292008F302031DFC
:10020E00031C16290310F21B1A29F00DF10DF20D25
:10021E00F30B0A2916290130FC0094201D29023007
:0E022E00FC009B201D290430FC00A7200800C6
:10023C0083120313FD01F8017008031900347406CE
:10024C00FA00FA1BFD09FB01F41F2E29F409F40A2C
:10025C00F01F3229F009F00A70087404FA00FA1B36
:10026C0056297408F802F00D700DF80D7408F80793
:10027C00F00D0630FC00700DF80D74087018F802C3
:10028C00701CF807F00DFC0B4129701CF8077B184B
:10029C006429FD1F0034F009F00AF809F80A00344B
:1002AC00F41F6129F01B5E297008F800F0014F293A
:1002BC00F001F00A0034F009FB0A3729F80A740837
:1002CC007802031D4F29F801F00AF01F4F29FF3463
:0202DC00080018
:1002DE007C18A529FC1876297C19C4296F29A00140
:1002EE007208031D96297108F2007008F100780853
:1002FE00F000F801A0157208031D96297108F2008E
:10030E007008F100F001A01120167208031D962945
:10031E007108F200F101A01572080319B82920081E
:10032E00F302031D031CBC290310F21BA529F80DB3
:10033E00F00DF10DF20DF30B9C29BC297B1B701CEB
:10034E00C029F81FC029F00A0319F10A0319F20A8D
:10035E00031DC029F20CF10CF00CF30A0319C42989
:10036E00C0290130FC009420C7290230FC009B20DC
:10037E00C7290430FC00A720C7290830FC00AB2099
:04038E000000080063
:100392008312031362106F088316A3003D206214B8
:0203A200080051
:0603A400FB15FF3008000C
:1003AA008312031372087606A000F801F901730894
:1003BA007702031CF8297708FD007308F7007D0807
:1003CA00F3007608FD007208F6007D08F200750851
:1003DA00FD007108F5007D08F1007408FD00700841
:1003EA00F4007D08F00077080319712A7208FA00F0
:1003FA00F217F61777087302F70003192B2A083049
:10040A007702031C212AF7007408F9007508F40022
:10041A007608F500F60108307702031C212AF70056
:10042A007408F9007508F400F50108307702031C16
:10043A00212A7A08F200712A770803192B2A031055
:10044A00F60CF50CF40CF90CF70B242AA01F382A29
:10045A00F909F409F509F609F90A0319F40A03195D
:10046A00F50A0319F60A7908F80774080318740FCD
:10047A00F00775080318750FF10776080318760F49
:10048A00F207A01B512A031C612AF20CF10CF00C92
:10049A00F80CF30F612A6D2A0318652AF809F00986
:1004AA00F109F209F80A0319F00A0319F10A031902
:1004BA00F20A8030FA06692A0130FC006F21732A99
:1004CA000230FC006F21732A0430FC00EF20732AEB
:1004DA000830FC00AB20732A0030FC000000080042
:1004EA0083120313FB01FA01F9018030F800F10CC1
:1004FA00F00C031C892A7408F90775080318750F8C
:10050A00FA070318FB0A0310F01F912A7408FA0766
:10051A0075080318750FFB07FB0CFA0CF90CF80C9D
:10052A00031C7C2A7B08F3007A08F2007908F100A0
:06053A007808F000080043
:100540007B14FB1FAB2AF201FA1FFF30F200F1000F
:0A055000F000FA0DF20CFF30080075
:0E055A001D3083120313FD00FD0BB12A0800B3
:1005680083120313EF010A30F4005308F0001E2130
:100578000A30F4001E217808F00030307007831626
:10058800A2000A30F40083125308F0001E217808F4
:10059800F00030307007EF0002308316A0000C30F6
:1005A800A100B72002308316A0000D30A1002E3024
:1005B800A200B72002308316A0000E30A1008312DB
:0A05C8006F088316A200B720080098
:1005D20083120313FB017308031D77080319402BD1
:1005E20072087606FA007708F3077E30031CFD2AAC
:1005F200F3020318432B002BF302031C462B720851
:10060200F8007108FC007008FD00F817F6170310D7
:10061200F201F101F0011830A0007D1C1A2B7408C0
:10062200F00775080318750FF10776080318760F9F
:10063200F207F20CF10CF00CF80CFC0CFD0C0310A0
:10064200A00B0E2BF21B2A2BF80DF00DF10DF20D63
:10065200F3037B1B701C3C2BF81F3C2BF00A031985
:10066200F10A0319F20A031D3C2BF20CF10CF00CF7
:10067200F30A0319432BFA1FF2130030482B0130FF
:100682009420482B0230AB20482B04309B200000E2
:0206920008005E
:10069400831203137008F8007108F000F101F201ED
:1006A400F301FB01FC019630F300FA01F01F602B0B
:1006B400F809F009F80A0319F00AFA177008F100AA
:0C06C4007808F000F801F201EF200800B7
:1006D0007A2B803083120313EB008D2BC030EB009C
:1006E0008D2B9430EB008D2BD430EB008D2B803094
:1006F000EB008D2B831203136B08013A0319692B4E
:100700006B08023A03196E2B6B08033A0319712B1D
:100710006B08043A0319742B772B6C03F0006B08F9
:10072000F0077008EB0070088316A3003D206210EC
:10073000EE016E086D07840000080319A72B6E08F0
:100740006D0784000008EF00C921EE0A992B62149E
:0207500008009F
:0C075200831203138030F606D521080046
:10075E0083120313FB0173080319EC2B7208FA00C2
:10076E00F2178E30F302F31FEF2BF309F30A083062
:10077E007302031CD22BF300F10D7208F100F2018B
:10078E0008307302031CD22BF300F10DF101730834
:10079E00031D0310DA2B73080319DA2B0310F20C66
:1007AE00F10CF30BD52B7B1B711CE42B031CE42BE0
:1007BE00F10A0319F20AF21BFB2BFA1FFE2BF209A8
:1007CE00F109F10A0319F20AFE2BF201F101FE2BD7
:1007DE007B14FB1F012CF201FA1F012CFF30F200DB
:1007EE00F100FA0DF20C012C0130FC00032C00304C
:1007FE00FC00032CFF30FC00FC080319072CA02280
:0A080E007108F0007208F100080004
:1008180083120313FA017308031D7A147708031D62
:10082800FA147A080319582C033A0319232C7A1856
:10083800202CF61F562C542CF21F542C562C7208C0
:100848008039FA00F21376088039F6137A0603190C
:10085800312C7A080319542C562C77087302031983
:10086800382C031C4C2C502C7608720203193F2C90
:10087800031C4C2C502C750871020319462C031CC0
:100888004C2C502C740870020319582C0318502C47
:10089800FA080319562C542CFA080319542C562C10
:1008A80003140800031008000314031508000800C7
:1008B800831203130618612CA614061C722CA61C9E
:1008C800722CA610D30A8030193AF00080305306F3
:1008D80070020318712C1930D300A6168619752CCE
:1008E8002615861D852C261D852C2611D3038030C0
:1008F8005306F0008030003A70020318842CD301AC
:0C090800A616A61E892CB422A612080018
:10091400831603131208013EF000F1010318F10AD3
:1009240083126B08F400F50175220630F20070089A
:10093400F4007108F50072080319A52CF50CF40CE9
:10094400F513FF3E9E2C0430F1007408F00071088A
:100954000319B02CF00D7010FF3EAA2C3030700536
:10096400F3007408F0007508F100F10CF00CF113B9
:10097400F10CF00CF113700895000F309705730813
:0409840097040800CC
:1009880083120313FB01FC01FA0173080319F12C0C
:10099800FA13F2178630F302F31BD52C0319D52C62
:1009A800F32CF309F30A08307302031CE22CF3005A
:1009B800F20DF2017308031D0310E92C73080319E3
:1009C800E92C0310F20CF30BE52C7B1B721CF12CA9
:1009D800031CF12CF20A0319F82CF101FB2C7B14EF
:1009E800FB1FFE2CF101FE2C0130FC00002D003015
:1009F800FC00002DFF30FC00FC080319042DA02288
:060A08007208F000080076
:100A0E00C730831203139F052208F000F00D7010FB
:100A1E00F00D7010F00D701070089F04AD221F15B0
:100A2E001F1D1B2D0000172D1E08F100F00183164F
:0A0A3E001E08F0040030F104080067
:0E0A48008312031361088A0060088200080010
:100A5600831603130711831212150C30970408002E
:0C0A660083120313950117129712080069
:100A7200831203137408003A031D542D7508003ABB
:100A8200031D542D7608003A031D542D7708003AB1
:100A9200031D542DFF30F000FF30F1007F30F200D3
:100AA200FF30F300EF2D8312031377080319E32DB0
:100AB20073080319E62D720876068039FA00F217D8
:100AC200F617A0017208F8007108FC007008FD001A
:100AD2007408FD027508031C750FFC027608031CDE
:100AE200760FF802F801FC01FD01031C7F2D0310B3
:100AF200F20CF10CF00CF80C0130A0007708F302B4
:100B0200031C892D7E302007F3070318E92D8E2D53
:100B12007E302007F307031CEC2D1830FA07FD0D79
:100B2200FC0DF80DF00DF10DF20DA00D7408F002A0
:100B32007508031C750FF1027608031C760FF2028A
:100B4200760DA004201CA72D7D14B22D7408F00789
:100B520075080318750FF10776080318760AF2076D
:100B62007D10FA031F307A05031D902D7B1B7D1C1F
:100B7200D92D0310F00DF10DF20DA00D7408F00245
:100B82007508031C750FF1027608031C760FF2023A
:100B9200760D20040139FD070318FC0A0319F80A2F
:100BA200031DD92DF80CFC0CFD0CF30A0319E92DD9
:100BB200FA1FF8137808F2007C08F1007D08F000B3
:100BC2000030EE2D0130D221EE2D02309420EE2D98
:0E0BD2000430AB20EE2D08309B200000080000
:100BE000831603138511051186100611061286124D
:100BF00083128511051186120612061186102A200D
:100C00002A202A20061586148515252085112A20DC
:100C10008515252085112A208515252085112A2056
:100C200086108515252085112A20851525208511FA
:100C3000061186168515252085112A208612861410
:100C400085152520851186108515252085112A20DA
:100C500085152520851186148515252085112A20C6
:100C6000861085152520851186160616061586140C
:0C0C70008515252085112A20621408003B
:100C7C008312031312149214F93083169200332545
:080C8C00EB018A242B2508006E
:100C9400013083160313A0000130A1002030A2000C
:100CA400B72001308316A0001030A1002030A2002C
:100CB400B72001308316A0000930A1003A30A20009
:100CC400B720261E632E01308316A3003D200800A2
:100CD4008312031306186F2EA614A61C792E061C65
:100CE400792EA610BA0A01308316A3003D20861976
:100CF4007C2E2615261D862E861D862E2611BA03C9
:100D040001308316A3003D2080303A06F000803085
:100D1400003A70020318902E0230BA008030023A72
:100D2400F00080303A0670020318992EBA010800C8
:100D3400831603139816903083129800831687172E
:100D4400071383128C1EA92E1A08F000A32E080084
:100D5400013083160313A0000130A1002030A2004B
:100D6400B72001308316A0001030A1002030A2006B
:100D7400B72001308316A0000C30A1003A30A20045
:100D8400B720261EC32E01308316A3003D20A613D0
:020D9400080055
:100D9600F02501308316A3003D200C308316A300F6
:100DA6003D200130EB000230EC002B30ED006823D3
:100DB6000230EB000330EC004030ED006823080001
:100DC600C9308316031386003330850007309C0034
:100DD600013083129F008E3083169F000710831206
:100DE6000710850186018701E0308B0063308100A2
:080DF60087308316810008001C
:100DFE0024258A110A128000840AE00A0319E10AE6
:080E0E00F003031DFF2E080094
:100E160083120313061B122FA6152612162F861BE6
:080E2600162F2616A611080084
:100EA800233084003D3083120313F0001730E00034
:080EB8000730E100FF260800ED
:10100000013083160313A0000130A1002030A2009C
:101010008A11B7208A1501308316A0001030A10074
:101020002030A2008A11B7208A1501308316A00053
:101030000A30A1003A30A2008A11B7208A15023086
:101040008316A0000230A1005330A2008A11B720FD
:101050008A156530EF008A11C9218A157430EF00B6
:101060008A11C9218A155030EF008A11C9218A15C9
:101070006F30EF008A11C9218A156930EF008A119B
:10108000C9218A156E30EF008A11C9218A15743082
:10109000EF008A11C9218A153A30EF008A11C9215F
:1010A0008A1502308316A0000F30A1005630A2002E
:1010B0008A11B7208A15A6168A115C248A15A51CE8
:1010C000CC29A2018A1107258A1570088312E9002C
:1010D0007108EA006908A3006A08A4005308F00038
:1010E0000030F01BFF30F1008A114A238A1533309B
:1010F000F4003330F5002330F6008330F7008A1116
:10110000E9228A157008E5007108E6007208E70018
:101110007308E8006508A7006608A8006708A9002A
:101120006808AA006908F0006A08F1008A114A23D9
:101130008A157008F4007108F5007208F60073084B
:10114000F7006508F0006608F1006708F20068081B
:10115000F3008A11A9238A157008CF007108D00006
:101160007208D1007308D2005808F4005908F5003D
:101170005A08F6005B08F7008A11D5218A1500305D
:10118000F4000030F5000030F6008030F7008A11DE
:1011900039258A155C08F4005D08F5005E08F60044
:1011A0005F08F7008A11E9228A150A30F400D73067
:1011B000F5002330F6007830F7008A11E9228A150D
:1011C0004B08F4004C08F5004D08F6004E08F700F7
:1011D0008A11D5218A157008CB007108CC007208DD
:1011E000CD007308CE007008F4007108F500720895
:1011F000F6007308F7000030F0000030F1007F3097
:10120000F2008630F3008A110C248A15013003188D
:101210000030F0007008031916290030CB000030B0
:10122000CC007F30CD008630CE0038290030F4006D
:101230000030F500FF30F6008630F7004B08F00074
:101240004C08F1004D08F2004E08F3008A110C24FE
:101250008A15013003180030F0007008031938298E
:101260000030CB000030CC00FF30CD008630CE0007
:101270004F08D8005008D9005108DA005208DB00A6
:101280004F08F0005008F1005108F2005208F30036
:101290008A11AF238A157008F4007108F500F50C67
:1012A000F40CF513751BF517F50CF40CF513751B01
:1012B000F5177408F0007508F1008A114A238A15A1
:1012C0003B08F4003C08F5003D08F6003E08F70036
:1012D0008A11E9228A154B08F4004C08F5004D08E4
:1012E000F6004E08F7008A11D5218A157008D4003F
:1012F0007108D5007208D6007308D7000030F400DA
:101300000030F5007F30F6008630F7008A110C249B
:101310008A150130031C0030F00070080319992968
:101320000030D4000030D5007F30D6008630D700A2
:10133000B329F401F501F601F7015408F00055084E
:10134000F1005608F2005708F3008A110C248A15A0
:10135000013003180030F00070080319B329D401DC
:10136000D501D601D7015408F0005508F100560800
:10137000F2005708F3008A11C4248A157008EB00A4
:101380008A118A248A154F08D8005008D9005108BC
:10139000DA005208DB00A510261E5C2801308316F7
:1013A000A3008A113D208A15EB018A118A248A152F
:0613B000D3012613080022
:1013B6008A1154278A158A11E3268A158A11CB26A3
:1013C6008A158A113E268A156730831699001815E4
:1013D6008A119A268A152930FB009630FC007F3048
:1013E600FD00FD0BF429FC0BF429FB0BF42901305D
:1013F6008316A3008A113D208A158A116A268A154A
:10140600BD2A01308316A0000130A1003C30A200A5
:101416008A11B7208A1501308316A0001030A1006A
:101426003E30A2008A11B7208A1501308316A0002B
:101436000630A1005630A2008A11B7208A156F30F7
:10144600EF008A11C9218A157530EF008A11C9216A
:101456008A157430EF008A11C9218A15A61D372A0C
:101466002617A61325100020C92A01308316A000CE
:101476000130A1003C30A2008A11B7208A15013044
:101486008316A0001030A1003E30A2008A11B720BA
:101496008A1501308316A0000430A1004330A20053
:1014A6008A11B7208A156130EF008A11C9218A1581
:1014B6007230EF008A11C9218A156730EF008A1150
:1014C600C9218A156130EF008A11C9218A15A61D26
:1014D600722A2613A61725108A114A268A15C92AA2
:1014E60001308316A0000130A1003C30A2008A1111
:1014F600B7208A1501308316A0001030A1003E30B7
:10150600A2008A11B7208A1501308316A000043084
:10151600A1004530A2008A11B7208A156C30EF0071
:101526008A11C9218A156530EF008A11C9218A15E9
:101536007430EF008A11C9218A157230EF008A11C2
:10154600C9218A156F30EF008A11C9218A156E30BC
:10155600EF008A11C9218A157330EF008A11C9215B
:101566008A15A61DBC2A2613A61325148A11AA2697
:101576008A15C92A3A08003A0319042A3A08013A90
:101586000319382A3A08023A0319732A002ACA2A82
:040E2E000034003458
:020E320000348A
:020E3400003488
:080E36000034003400340034E4
:100E3E004C3461346234203443346F346E34743441
:0E0E4E0072346F346C34653420343134003427
:020E5C00003460
:080E5E000034003470348434C8
:020E6600013455
:100E6800493446345334503420342D3420345334E8
:060E780050344F34003439
:080E7E0000340034003400349C
:080E8600003400340034003494
:020E8E0000342E
:080E900000340034003400348A
:080E9800003400340034003482
:080EA000003400347034843486
:02400E00022F7F
:00000001FF
