:020000003B2A99
:10000800FF00030E8301C0000A08BF008A010B1D10
:1000180010280B11013087063F088A00400E830024
:06002800FF0E7F0E09002F
:0A002E0000000000000000000800C0
:100038001D3083120313FC009130FD00FD0B2228B4
:06004800FC0B2228080059
:10004E00423083120313FD00FD0B2B280000080025
:10005E0083120313C91B3528861236288616491BB0
:10006E003A2806123B280616C91A3F2806114028C0
:10007E000615491A44288610452886143C18492826
:10008E0005154A280511851517208511C9195128FE
:10009E008612522886164919562806125728061611
:1000AE00C9185B2806115C280615491860288610A9
:1000BE00612886143C1865280515662805118515D6
:1000CE00172085113C1C6D281C206E282720080047
:1000DE0083120313FB01FA01F9018030F800F10CD1
:1000EE00F00C031C83287408F90775080318750FA4
:1000FE00FA070318FB0A0310F01F8B287408FA077F
:10010E0075080318750FFB07FB0CFA0CF90CF80CAD
:10011E00031C76287B08F3007A08F2007908F100B8
:06012E007808F000080053
:10013400831203133C104808C9002F203C14080004
:1001440083160313851105118610061106128612F3
:1001540083128511051186120612061186101C20C1
:100164001C201C20061586148515172085111C20BB
:100174008515172085111C208515172085111C2035
:1001840086108515172085111C20851517208511CB
:10019400061186168515172085111C2086128614D3
:1001A40085151720851186108515172085111C20AB
:1001B40085151720851186148515172085111C2097
:1001C40086108515172085118616061606158614C1
:0C01D4008515172085111C203C14080024
:1001E0000229803083120313C4001529C030C400D3
:1001F00015299430C4001529D430C4001529803045
:10020000C4001529831203134408013A0319F12885
:100210004408023A0319F6284408033A0319F92856
:100220004408043A0319FC28FF284503F000440859
:10023000F0077008C4007008C9002F203C10C701E7
:10024000470846078400000803192E294708460777
:1002500084000008C8009A20C70A20293C1408001E
:10026000831603130711831212150C30970408002C
:0C02700083120313950117129712080067
:10027C00831603131208013EF000F1010318F10A72
:10028C0083124408F400F5016F200630F200700868
:10029C00F4007108F500720803195929F50CF40CD7
:1002AC00F513FF3E52290430F1007408F000710878
:1002BC0003196429F00D7010FF3E5E293030700573
:1002CC00F3007408F0007508F100F10CF00CF11358
:1002DC00F10CF00CF113700895000F3097057308B2
:0402EC00970408006B
:0E02F000831203133E088A003D0882000800B6
:1002FE009129803083120313C100A429C030C1009C
:10030E00A4299430C100A429D430C100A42980307E
:10031E00C100A429831203134108013A031980294D
:10032E004108023A031985294108033A031988291D
:10033E004108043A03198B298E294203F000410823
:10034E00F0077008C1003C147008C9002F203C1043
:0A035E004308C9002F203C140800DA
:100368008312031312149214F93083169200382161
:08037800C4013E213021080000
:1003800083160313981690308312980083168717EC
:10039000071383128C1ECF291A08F000C929080000
:1003A000831203130618D529BB14BB1CDE29061CB7
:1003B000DE29BB10BA0A0130C9002F208619E129B5
:1003C0003B153B1DEA29861DEA293B11BA03013082
:1003D000C9002F2080303A06F0008030003A7002C9
:1003E0000318F4290230BA008030023AF00080305D
:0C03F0003A0670020318FD29BA0108004B
:1003FC00A2200130C9002F200C30C9002F20013061
:10040C00C4000230C5002B30C600F0200230C400FE
:0C041C000330C5002030C600F0200800AE
:10042800C9308316031386003330850007309C00DB
:10043800013083129F000E3083169F00071083122D
:100448000710850186018701E0308B00810180302B
:060458008316810008007C
:10045E0078218A110A128000840ABD0A0319BE0A85
:08046E00F003031D2F2A080012
:10047600493083120313A0004630A1005330A20076
:100486005030A3002030A4002D30A5002030A60057
:100496005330A7005030A8004F30A900AA014C30B5
:1004A600AB006130AC006230AD002030AE004330AE
:1004B600AF006F30B0006E30B1007430B2007230F1
:1004C600B3006F30B4006C30B5006530B600203034
:1004D600B7003130B800B901BA01BB011422FE21C0
:1004E600B4216730831699001815C0212930FB0006
:1004F6009630FC007F30FD00FD0B7F2AFC0B7F2A27
:10050600FB0B7F2A0130C9002F20D021F62A0130AB
:10051600C1000130C2003C30C3007F210130C10060
:100526001030C2003E30C3007F210130C1000430CC
:10053600C2005630C3007F216F30C8009A20753044
:10054600C8009A207430C8009A20022B0130C100DE
:100556000130C2003C30C3007F210130C1001030A1
:10056600C2003E30C3007F210130C1000430C2000A
:100576004330C3007F216130C8009A207230C80022
:100586009A206730C8009A206130C8009A20022B52
:100596000130C1000130C2003C30C3007F21013070
:1005A600C1001030C2003E30C3007F210130C100BF
:1005B6000430C2004530C3007F216C30C8009A2049
:1005C6006530C8009A207430C8009A207230C8007E
:1005D6009A206F30C8009A206E30C8009A20733077
:1005E600C8009A20022B3A08003A03198A2A3A08C8
:1005F600013A0319A92A3A08023A0319CB2A882A8A
:02060600032BC4
:02400E004A2F37
:00000001FF
