:02000000802D51
:10000800FF00030E8301D0000A08D1008A0170089E
:10001800A1000B1D1D28BF0A231F1328C5143F0864
:100028000A3A031D1A2874250130BF000B116330EA
:1000380081002108F00051088A00500E8300FF0E4D
:040048007F0E09001E
:10004C00423083120313FD00FD0B2A280000080028
:10005C001D3083120313FC009130FD00FD0B34287E
:06006C00FC0B3428080023
:0A007200000000000000000008007C
:10007C0083120313DA1B44288612452886165A1B52
:10008C00492806124A280616DA1A4E2806114F2855
:10009C0006155A1A53288610542886144F185828B7
:1000AC00051559280511851539208511DA1960288F
:1000BC008612612886165A196528061266280616B5
:1000CC00DA186A2806116B2806155A186F2886103C
:1000DC00702886144F187428051575280511851578
:1000EC00392085114F1C7C282E207D2826200800C5
:1000FC009028803083120313D700A328C030D70078
:10010C00A3289430D700A328D430D700A32880305C
:10011C00D700A328831203135708013A03197F2829
:10012C005708023A031984285708033A03198728F9
:10013C005708043A03198A288D285803F0005708E9
:10014C00F0077008D7004F147008DA003E204F10EB
:0A015C005908DA003E204F14080095
:1001660083120313FD01F8017008031900347406A5
:10017600FA00FA1BFD09FB01F41FC328F409F40A6F
:10018600F01FC728F009F00A70087404FA00FA1B79
:10019600EB287408F802F00D700DF80D7408F807D6
:1001A600F00D0630FC00700DF80D74087018F8029A
:1001B600701CF807F00DFC0BD628701CF8077B188E
:1001C600F928FD1F0034F009F00AF809F80A00348E
:1001D600F41FF628F01BF3287008F800F001E42855
:1001E600F001F00A0034F009FB0ACC28F80A74087A
:1001F6007802031DE428F801F00AF01FE428FF3412
:020206000800EE
:0E020800F201F101F001F801F30100300800ED
:100216007B15FB1F15290130F300F201F101F001F6
:08022600FA0DF20CFF30080094
:08022E00FA1FF2130030080072
:1002360083120313FB01FA01F9018030F800F10C77
:10024600F00C031C2F297408F90775080318750F9D
:10025600FA070318FB0A0310F01F37297408FA0778
:1002660075080318750FFB07FB0CFA0CF90CF80C54
:10027600031C22297B08F3007A08F2007908F100B2
:060286007808F0000800FA
:10028C00A0017208031D5B297108F2007008F100CF
:10029C00F001A0157208031D5B297108F200F10131
:1002AC00A01120167208031969292008F302031DF6
:1002BC00031C6D290310F21B7129F00DF10DF20DC9
:1002CC00F30B61296D290130FC00042174290230E3
:0E02DC00FC000B2174290430FC0017210800DF
:1002EA00FB14FB1F7F29FF30F300F200F100F0003E
:0802FA00FA0DF20CFF300800C0
:10030200831203134F105608DA003E204F140800E0
:0E0312001D3083120313FD00FD0B8D29080022
:100320007B14FB1F9B29F201FA1FFF30F200F10042
:0A033000F000FA0DF20CFF30080097
:10033A0083120313D6010A30F4002208F000B32016
:10034A000A30F400B3207808F00030307007D90082
:10035A000A30F4002208F000B3207808F0003030A8
:10036A007007D6000230D7000C30D8007E20023049
:10037A00D7000D30D8002E30D9007E200230D700A9
:0E038A000E30D8005608D9007E20451008001D
:0E039800831203134E088A004D0882000800ED
:1003A600E529803083120313D200F829C030D20029
:1003B600F8299430D200F829D430D200F8298030B8
:1003C600D200F829831203135208013A0319D429DB
:1003D6005208023A0319D9295208033A0319DC29AB
:1003E6005208043A0319DF29E2295303F0005208A0
:1003F600F0077008D2007008DA003E204F10D501D1
:1004060055085407840000080319112A5508540793
:1004160084000008D6008121D50A032A4F1408005B
:10042600831603130711831212150C309704080064
:1004360083120313FB01FC01FA01730803195A2AFC
:10044600F2178E30F302F31B2B2A03192B2A5D2A8F
:10045600F309F30A08307302031C402AF300F10D76
:100466007208F100F20108307302031C402AF10DF4
:10047600F1017308031D0310482A73080319482A5B
:100486000310F20CF10CF30B432A7B1B711C522A4E
:10049600031C522AF10A0319F20AF21B692AFA1FEF
:1004A6006C2AF209F109F10A0319F20A6C2AF2011F
:1004B600F1016C2A7B14FB1F6F2AF201FA1F6F2AC7
:1004C600FF30F200F100FA0DF20C6F2A0130FC0049
:1004D600712A0030FC00712AFF30FC00FC08031969
:0E04E600752A90217108F0007208F1000800DC
:1004F4008316031385110511861006110612861240
:1005040083128511051186120612061186102E20FB
:100514002E202E20061586148515392085112E20AF
:100524008515392085112E208515392085112E2019
:1005340086108515392085112E20851539208511C1
:10054400061186168515392085112E2086128614EB
:1005540085153920851186108515392085112E20A1
:1005640085153920851186148515392085112E208D
:1005740086108515392085118616061606158614EB
:0C0584008515392085112E204F14080029
:1005900083120313FB017308031D770803191F2B34
:1005A00072087606FA007708F3077E30031CDC2A0F
:1005B000F3020318222BDF2AF302031C252B7208F7
:1005C000F8007108FC007008FD00F817F61703101A
:1005D000F201F101F0011830A0007D1CF92A740825
:1005E000F00775080318750FF10776080318760FE2
:1005F000F207F20CF10CF00CF80CFC0CFD0C0310E3
:10060000A00BED2AF21B092BF80DF00DF10DF20DE8
:10061000F3037B1B701C1B2BF81F1B2BF00A031909
:10062000F10A0319F20A031D1B2BF20CF10CF00C5A
:10063000F30A0319222BFA1FF2130030272B013083
:100640000421272B02307521272B04300B210000B9
:020650000800A0
:10065200831203137008F8007108F000F101F2012F
:10066200F301FB01FC019630F300FA01F01F3F2B6E
:10067200F809F009F80A0319F00AFA177008F100EC
:0C0682007808F000F801F20146210800A1
:10068E00831203139F01C0309F044009F0007008CD
:10069E0083169F051F179F1783125208F000F00D47
:1006AE007010F00D7010F00D701070089F041F1474
:1006BE0089211F151F1D652B0000612B1F101E08A1
:1006CE00F100F00183161E08F0040030F10408005A
:1006DE0083120313FB01FC01FA01730803199C2B0F
:1006EE00FA13F2178630F302F31B802B0319802BBB
:1006FE009E2BF309F30A08307302031C8D2BF300B3
:10070E00F20DF2017308031D0310942B73080319E5
:10071E00942B0310F20CF30B902B7B1B721C9C2B57
:10072E00031C9C2BF20A0319A32BF101A62B7B149D
:10073E00FB1FA92BF101A92B0130FC00AB2B0030C4
:10074E00FC00AB2BFF30FC00FC080319AF2B9021F3
:06075E007208F000080023
:10076400831603131208013EF000F1010318F10A85
:1007740083125208F400F5011B210630F2007008C0
:10078400F4007108F50072080319CD2BF50CF40C74
:10079400F513FF3EC62B0430F1007408F000710815
:1007A4000319D82BF00D7010FF3ED22B303070059A
:1007B400F3007408F0007508F100F10CF00CF1136B
:1007C400F10CF00CF113700895000F3097057308C5
:0407D400970408007E
:0C07D800831203139501171297120800FA
:1007E400831203130618F72BA314061C082CA31C4E
:1007F400082CA310A20A8030323AF000803022067E
:1008040070020318072C3230A200A31686190B2C91
:100814002315861D1B2C231D1B2C2311A2038030A2
:100824002206F0008030003A700203181A2CA2014C
:0C083400A316A31E1F2C9D21A312080078
:100840008312031312149214F93083169200EC23CE
:08085000D201B22313220800BB
:10085800013083120313D7000130D8002030D900AB
:100868007E200130D7001030D8002030D9007E20FB
:100878000130D7000930D8003A30D9007E20231E35
:0A088800432C0130DA003E20080086
:100892008312031306184E2CA314A31C572C061CF8
:1008A200572CA310BE0A0130DA003E2086195A2CBA
:1008B2002315231D632C861D632C2311BE030130D7
:1008C200DA003E2080303E06F0008030003A7002AE
:1008D20003186D2C0230BE008030023AF0008030E6
:0C08E2003E0670020318762CBE010800D0
:1008EE008316031398169030831298008316871779
:1008FE00071383128C1E862C1A08F000802C080019
:10090E00013083120313D7000130D8002030D900F4
:10091E007E200130D7001030D8002030D9007E2044
:10092E000130D7000C30D8003A30D9007E20231E7B
:0C093E009E2C0130DA003E20A3130800BC
:10094A00C9308316031386003330850007309C00B4
:10095A00013083129F000E3083169F000710831206
:10096A000710850186018701E0308B006330810022
:08097A0087308316810008009C
:10098200CC218A110A128000840ACD0A0319CE0AE8
:08099200F003031DC12C080055
:10099A00013083120313D7000130D8002030D90068
:1009AA007E200130D7001030D8002030D9007E20B8
:1009BA000130D7000A30D8003A30D9007E20023000
:1009CA00D7000230D8005330D9007E206530D600D7
:1009DA0081217430D60081215030D60081216F30B8
:1009EA00D60081216930D60081216E30D60081215E
:1009FA007430D60081213A30D60081210230D700E6
:100A0A000F30D8005630D9007E20A316F223C51C19
:100A1A00542D2208F0000030F01BFF30F10029238A
:100A2A003330F4003330F5002330F6008330F7001A
:100A3A00C8221B227008C3007108C400D2014723D0
:100A4A0070088312C1007108C20070084302F300E3
:100A5A007108031C013E4402F4007308F000740894
:100A6A00F100F10CF00CF1137008CB007108CC0006
:100A7A0029234608F4004708F5004808F600490803
:100A8A00F700C8226F237008CA007008FF3C0318D9
:100A9A00502DFF30CA004A08D200B223C510231EC7
:100AAA000B2D0130DA003E20D201B223A20123131A
:020ABA00080032
:100ABC007A220130DA003E200C30DA003E20013080
:100ACC00D2000230D3002F30D400D3210230D20018
:0C0ADC000330D3002430D400D3210800E4
:100AE80083120313061B7B2DA31523127F2D861B50
:080AF8007F2D2316A311080055
:100B00005626A5245E2520246730831699001815E3
:100B100077242930FB009630FC007F30FD00FD0B70
:100B20008F2DFC0B8F2DFB0B8F2D0130DA003E201B
:100B30004924182E0130D7000130D8003C30D900AC
:100B40007E200130D7001030D8003E30D9007E2002
:100B50000130D7000630D8005630D9007E206F30E3
:100B6000D60081217530D60081217430D6008121D4
:100B7000A31DBE2D2317A3134510CD24242E013011
:100B8000D7000130D8003C30D9007E200130D7009A
:100B90001030D8003E30D9007E200130D70004301C
:100BA000D8004330D9007E206130D60081217230D8
:100BB000D60081216730D60081216130D6008121A5
:100BC000A31DE62D2313A31745102C24242E01303A
:100BD000D7000130D8003C30D9007E200130D7004A
:100BE0001030D8003E30D9007E200130D7000430CC
:100BF000D8004530D9007E206C30D6008121653088
:100C0000D60081217430D60081217230D600812136
:100C10006F30D60081216E30D60081217330D6002E
:100C20008121A31D172E2313A31345148724242EDB
:100C30003E08003A03199A2D3E08013A0319BF2DC8
:0C0C40003E08023A0319E72D982D252EDE
:100CAC00223084002B3083120313F0002B30CD0044
:080CBC000630CE00C12408003F
:020C5600003468
:020C5800003466
:100C5A00493446345334503420342D3420345334F8
:060C6A0050344F34003449
:100C70004C3461346234203443346F346E34743411
:0E0C800072346F346C346534203431340034F7
:020C8E00003430
:020C900001342D
:020C92000F341D
:040C940000340034F4
:040C980000340034F0
:020C9C00003422
:080C9E00333433345334803445
:020CA600003418
:040CA80000340034E0
:02400E00022F7F
:00000001FF
