:040000008A153C2AF7
:10000800FF00030E8301EC000A08EB008A01700868
:10001800A1000B1D1C28C00A241F1328A314400884
:100028000A3A031D19281127C0010B1163308100FA
:100038002108F0006B088A006C0E8300FF0E7F0E0B
:020048000900AD
:0A004A0000000000000000000800A4
:100054001D3083120313FC009130FD00FD0B30288A
:06006400FC0B302808002F
:10006A00423083120313FD00FD0B392800000800FB
:10007A0083160313AE1B4428831286124628831262
:10008A00861683162E1B4C28831206124E288312BC
:10009A0006168316AE1A542883120611562883129E
:1000AA00061583162E1A5C28831286105E28831280
:1000BA0086146A18622805156328051185152520F6
:1000CA0085118316AE196C28831286126E28831244
:1000DA00861683162E19742883120612762883121E
:1000EA0006168316AE187C28831206117E28831200
:1000FA00061583162E1884288312861086288312E2
:10010A0086146A188A2805158B2805118515252055
:0E011A0085116A1C92282A209328352008009F
:0E012800F201F101F001F801F30100300800CE
:100136007B15FB1FA5280130F300F201F101F00148
:08014600FA0DF20CFF30080075
:08014E00FA1FF2130030080053
:10015600FB14FB1FB528FF30F300F200F100F0009E
:08016600FA0DF20CFF30080055
:10016E00C928803083160313AB00DC28C030AB00E7
:10017E00DC289430AB00DC28D430AB00DC28803097
:10018E00AB00DC28831603132B08013A0319B82899
:10019E002B08023A0319BD282B08033A0319C0286D
:1001AE002B08043A0319C328C6282C03F0002B0889
:1001BE00F0077008AB0083126A1470088316AE0045
:1001CE003D206A1083162D08AE003D206A140800EB
:1001DE00A0017208031D04297108F2007008F100D5
:1001EE00F001A0157208031D04297108F200F10137
:1001FE00A01120167208031912292008F302031DFC
:10020E00031C16290310F21B1A29F00DF10DF20D25
:10021E00F30B0A2916290130FC0094201D29023007
:0E022E00FC009B201D290430FC00A7200800C6
:10023C0083120313FD01F8017008031900347406CE
:10024C00FA00FA1BFD09FB01F41F2E29F409F40A2C
:10025C00F01F3229F009F00A70087404FA00FA1B36
:10026C0056297408F802F00D700DF80D7408F80793
:10027C00F00D0630FC00700DF80D74087018F802C3
:10028C00701CF807F00DFC0B4129701CF8077B184B
:10029C006429FD1F0034F009F00AF809F80A00344B
:1002AC00F41F6129F01B5E297008F800F0014F293A
:1002BC00F001F00A0034F009FB0A3729F80A740837
:1002CC007802031D4F29F801F00AF01F4F29FF3463
:0202DC00080018
:1002DE007C18A529FC1876297C19C4296F29A00140
:1002EE007208031D96297108F2007008F100780853
:1002FE00F000F801A0157208031D96297108F2008E
:10030E007008F100F001A01120167208031D962945
:10031E007108F200F101A01572080319B82920081E
:10032E00F302031D031CBC290310F21BA529F80DB3
:10033E00F00DF10DF20DF30B9C29BC297B1B701CEB
:10034E00C029F81FC029F00A0319F10A0319F20A8D
:10035E00031DC029F20CF10CF00CF30A0319C42989
:10036E00C0290130FC009420C7290230FC009B20DC
:10037E00C7290430FC00A720C7290830FC00AB2099
:04038E000000080063
:10039200831203136A1083162A08AE003D206A14E2
:0203A200080051
:0603A400FB15FF3008000C
:1003AA008312031372087606A000F801F901730894
:1003BA007702031CF8297708FD007308F7007D0807
:1003CA00F3007608FD007208F6007D08F200750851
:1003DA00FD007108F5007D08F1007408FD00700841
:1003EA00F4007D08F00077080319712A7208FA00F0
:1003FA00F217F61777087302F70003192B2A083049
:10040A007702031C212AF7007408F9007508F40022
:10041A007608F500F60108307702031C212AF70056
:10042A007408F9007508F400F50108307702031C16
:10043A00212A7A08F200712A770803192B2A031055
:10044A00F60CF50CF40CF90CF70B242AA01F382A29
:10045A00F909F409F509F609F90A0319F40A03195D
:10046A00F50A0319F60A7908F80774080318740FCD
:10047A00F00775080318750FF10776080318760F49
:10048A00F207A01B512A031C612AF20CF10CF00C92
:10049A00F80CF30F612A6D2A0318652AF809F00986
:1004AA00F109F209F80A0319F00A0319F10A031902
:1004BA00F20A8030FA06692A0130FC006F21732A99
:1004CA000230FC006F21732A0430FC00EF20732AEB
:1004DA000830FC00AB20732A0030FC000000080042
:1004EA0083120313FB01FA01F9018030F800F10CC1
:1004FA00F00C031C892A7408F90775080318750F8C
:10050A00FA070318FB0A0310F01F912A7408FA0766
:10051A0075080318750FFB07FB0CFA0CF90CF80C9D
:10052A00031C7C2A7B08F3007A08F2007908F100A0
:06053A007808F000080043
:100540007B14FB1FAB2AF201FA1FFF30F200F1000F
:0A055000F000FA0DF20CFF30080075
:0E055A001D3083120313FD00FD0BB12A0800B3
:1005680083160313AA010A30F40083122508F00049
:100578001E210A30F4001E217808F0003030700780
:100588008316AD000A30F40083122508F0001E21FE
:100598007808F000303070078316AA000230AB00EC
:1005A8000C30AC00B72002308316AB000D30AC0025
:1005B8002E30AD00B72002308316AB000E30AC00F1
:0805C8002A08AD00B72008006D
:1005D00083120313FB017308031D770803193F2BD4
:1005E00072087606FA007708F3077E30031CFC2AAF
:1005F000F3020318422BFF2AF302031C452B720857
:10060000F8007108FC007008FD00F817F6170310D9
:10061000F201F101F0011830A0007D1C192B7408C3
:10062000F00775080318750FF10776080318760FA1
:10063000F207F20CF10CF00CF80CFC0CFD0C0310A2
:10064000A00B0D2BF21B292BF80DF00DF10DF20D67
:10065000F3037B1B701C3B2BF81F3B2BF00A031989
:10066000F10A0319F20A031D3B2BF20CF10CF00CFA
:10067000F30A0319422BFA1FF2130030472B013003
:100680009420472B0230AB20472B04309B200000E6
:02069000080060
:10069200831203137008F8007108F000F101F201EF
:1006A200F301FB01FC019630F300FA01F01F5F2B0E
:1006B200F809F009F80A0319F00AFA177008F100AC
:0C06C2007808F000F801F201EF200800B9
:1006CE00792B803083120313ED008C2BC030ED009C
:1006DE008C2B9430ED008C2BD430ED008C2B803095
:1006EE00ED008C2B831203136D08013A0319682B4E
:1006FE006D08023A03196D2B6D08033A0319702B1E
:10070E006D08043A0319732B762B6E03F0006D08F7
:10071E00F0077008ED0070088316AE003D206A10D9
:10072E008316A601260883126F078400000803199A
:10073E00AC2B8316260883126F07840000088316DD
:10074E00AA00C9218316A60A992B83126A140800DF
:0C075E00831203138030F606D52108003A
:10076A0083120313FB0173080319F22B7208FA00B0
:10077A00F2178E30F302F31FF52BF309F30A083050
:10078A007302031CD82BF300F10D7208F100F20179
:10079A0008307302031CD82BF300F10DF101730822
:1007AA00031D0310E02B73080319E02B0310F20C4E
:1007BA00F10CF30BDB2B7B1B711CEA2B031CEA2BC2
:1007CA00F10A0319F20AF21B012CFA1F042CF2098E
:1007DA00F109F10A0319F20A042CF201F101042CBD
:1007EA007B14FB1F072CF201FA1F072CFF30F200C3
:1007FA00F100FA0DF20C072C0130FC00092C003034
:10080A00FC00092CFF30FC00FC0803190D2CA02267
:0A081A007108F0007208F1000800F8
:1008240083120313FA017308031D7A147708031D56
:10083400FA147A0803195E2C033A0319292C7A183E
:10084400262CF61F5C2C5A2CF21F5A2C5C2C720896
:100854008039FA00F21376088039F6137A06031900
:10086400372C7A0803195A2C5C2C77087302031965
:100874003E2C031C522C562C760872020319452C6C
:10088400031C522C562C7508710203194C2C031CA2
:10089400522C562C7408700203195E2C0318562C23
:1008A400FA0803195C2C5A2CFA0803195A2C5C2CEC
:1008B40003140800031008000314031508000800BB
:1008C400831203130618672CA414061C782CA41C8A
:1008D400782CA410A50A8030193AF000803025063F
:1008E40070020318772C1930A500A41686197B2CE6
:1008F4002415861D8B2C241D8B2C2411A5038030DC
:100904002506F0008030003A700203188A2CA501F5
:0C091400A416A41E8F2CB422A41208000C
:10092000831603131208013EF000F1010318F10AC7
:1009300083126D08F400F50175220630F20070088C
:10094000F4007108F50072080319AB2CF50CF40CD7
:10095000F513FF3EA42C0430F1007408F000710878
:100960000319B62CF00D7010FF3EB02C303070051E
:10097000F3007408F0007508F100F10CF00CF113AD
:10098000F10CF00CF113700895000F309705730807
:0409900097040800C0
:1009940083120313FB01FC01FA0173080319F72CFA
:1009A400FA13F2178630F302F31BDB2C0319DB2C4A
:1009B400F92CF309F30A08307302031CE82CF30042
:1009C400F20DF2017308031D0310EF2C73080319D1
:1009D400EF2C0310F20CF30BEB2C7B1B721CF72C8B
:1009E400031CF72CF20A0319FE2CF101012D7B14D0
:1009F400FB1F042DF101042D0130FC00062D0030F5
:100A0400FC00062DFF30FC00FC0803190A2DA0226F
:060A14007208F00008006A
:100A1A00C730831203139F052208F000F00D7010EF
:100A2A00F00D7010F00D701070089F04AD221F15A4
:100A3A001F1D212D00001D2D1E08F100F001831637
:0A0A4A001E08F0040030F10408005B
:0E0A54008312031369088A00680882000800F4
:100A6200831603130711831212150C309704080022
:0C0A72008312031395011712971208005D
:100A7E00831203137408003A031D5A2D7508003AA9
:100A8E00031D5A2D7608003A031D5A2D7708003A99
:100A9E00031D5A2DFF30F000FF30F1007F30F200C1
:100AAE00FF30F300F52D8312031377080319E92D98
:100ABE0073080319EC2D720876068039FA00F217C6
:100ACE00F617A0017208F8007108FC007008FD000E
:100ADE007408FD027508031C750FFC027608031CD2
:100AEE00760FF802F801FC01FD01031C852D0310A1
:100AFE00F20CF10CF00CF80C0130A0007708F302A8
:100B0E00031C8F2D7E302007F3070318EF2D942D35
:100B1E007E302007F307031CF22D1830FA07FD0D67
:100B2E00FC0DF80DF00DF10DF20DA00D7408F00294
:100B3E007508031C750FF1027608031C760FF2027E
:100B4E00760DA004201CAD2D7D14B82D7408F00771
:100B5E0075080318750FF10776080318760AF20761
:100B6E007D10FA031F307A05031D962D7B1B7D1C0D
:100B7E00DF2D0310F00DF10DF20DA00D7408F00233
:100B8E007508031C750FF1027608031C760FF2022E
:100B9E00760D20040139FD070318FC0A0319F80A23
:100BAE00031DDF2DF80CFC0CFD0CF30A0319EF2DC1
:100BBE00FA1FF8137808F2007C08F1007D08F000A7
:100BCE000030F42D0130D221F42D02309420F42D7A
:0E0BDE000430AB20F42D08309B2000000800EE
:100BEC008316031385110511861006110612861241
:100BFC0083128511051186120612061186102A2001
:100C0C002A202A20061586148515252085112A20D0
:100C1C008515252085112A208515252085112A204A
:100C2C0086108515252085112A20851525208511EE
:100C3C00061186168515252085112A208612861404
:100C4C0085152520851186108515252085112A20CE
:100C5C0085152520851186148515252085112A20BA
:100C6C008610851525208511861606160615861400
:0C0C7C008515252085112A206A14080027
:100C88008312031312149214F93083169200392533
:080C9800ED0190243125080054
:100CA000013083160313AB000130AC002030AD00DF
:100CB000B72001308316AB001030AC002030AD00FF
:100CC000B72001308316AB000930AC003A30AD00DC
:100CD000B720241E692E01308316AE003D20080087
:100CE000831203130618752EA414A41C7F2E061C51
:100CF0007F2EA410BB0A01308316AE003D2086195A
:100D0000822E2415241D8C2E861D8C2E2411BB03AF
:100D100001308316AE003D2080303B06F00080306D
:100D2000003A70020318962E0230BB008030023A5F
:100D3000F00080303B06700203189F2EBB010800B4
:100D40008316031398169030831298008316871722
:100D5000071383128C1EAF2E1A08F000A92E08006C
:100D6000013083160313AB000130AC002030AD001E
:100D7000B72001308316AB001030AC002030AD003E
:100D8000B72001308316AB000C30AC003A30AD0018
:100D9000B720241EC92E01308316AE003D20A413B7
:020DA000080049
:100DA200F62501308316AE003D200C308316AE00CE
:100DB2003D200130ED000230EE002C30EF006723C1
:100DC2000230ED000330EE004130EF0067230800EF
:100DD200C9308316031386003330850007309C0028
:100DE200013083129F008E3083169F0007108312FA
:100DF2000710850186018701E0308B006330810096
:080E020087308316810008000F
:100E0A002A258A110A128000840AE80A0319E90AC3
:080E1A00F003031D052F080081
:100E220083120313061B182FA41524121C2F861BD2
:080E32001C2F2416A411080076
:100EC40023308400453083120313F0001D30E80002
:080ED4000730E90005270800C2
:10100000013083160313AB000130AC002030AD007B
:101010008A11B7208A1501308316AB001030AC005E
:101020002030AD008A11B7208A1501308316AB003D
:101030000A30AC003A30AD008A11B7208A15023070
:101040008316AB000230AC005330AD008A11B720DC
:101050008A1565308316AA008A11C9218A15743051
:101060008316AA008A11C9218A1550308316AA0056
:101070008A11C9218A156F308316AA008A11C921E5
:101080008A1569308316AA008A11C9218A156E3023
:101090008316AA008A11C9218A1574308316AA0002
:1010A0008A11C9218A153A308316AA008A11C921EA
:1010B0008A1502308316AB000F30AC005630AD00FD
:1010C0008A11B7208A15A4168A1162248A15A31CD6
:1010D0002D2AA2018A110D258A157008A400710815
:1010E000A50024088312AA00831625088312AB00EA
:1010F0002508F0000030F01BFF30F1008A11492371
:101100008A153330F4003330F5002330F600833095
:10111000F7008A11E8228A1570088316A00071086A
:10112000A1007208A2007308A30020088312A60081
:10113000831621088312A700831622088312A800B1
:10114000831623088312A90083162408F0002508BB
:10115000F1008A1149238A157008F4007108F5001E
:101160007208F6007308F70083162008F0002108C3
:10117000F1002208F2002308F3008A11AF238A1538
:101180007008D8007108D9007208DA007308DB0013
:101190006408F4006508F5006608F6006708F700C3
:1011A0008A11D5218A150030F4000030F500003096
:1011B000F6008030F7008A113F258A155008F400A8
:1011C0005108F5005208F6005308F7008A11E8228A
:1011D0008A150A30F400D730F5002330F600783055
:1011E000F7008A11E8228A155408F4005508F50022
:1011F0005608F6005708F7008A11D5218A1570089D
:10120000D4007108D5007208D6007308D7007008A2
:10121000F4007108F5007208F6007308F70000305A
:10122000F0000030F1007F30F2008630F3008A11C8
:1012300012248A15013003180030F00070080319D9
:101240002A290030D4000030D5007F30D600863007
:10125000D7004C290030F4000030F500FF30F600D4
:101260008630F7005408F0005508F1005608F200E7
:101270005708F3008A1112248A1501300318003030
:10128000F000700803194C290030D4000030D5005C
:10129000FF30D6008630D7006408F4006508F500FA
:1012A0006608F6006708F7005808F0005908F100D2
:1012B0005A08F2005B08F3008A11AF238A155C0814
:1012C000F4005D08F5005E08F6005F08F7008A117B
:1012D000E8228A150A30F400D730F5002330F600F2
:1012E0007830F7008A113F258A1570088316A00010
:1012F0007108A1007208A2007308A30020088312DD
:10130000E000831621088312E1008316220883126D
:10131000E200831623088312E3005808E40059080A
:10132000E5005A08E6005B08E7005808F000590895
:10133000F1005A08F2005B08F3008A11B5238A1500
:101340007008F4007108F500F50CF40CF513751B2A
:10135000F517F50CF40CF513751BF5177408F00070
:101360007508F1008A1149238A153C08F4003D08EC
:10137000F5003E08F6003F08F7008A11E8228A15BA
:101380005408F4005508F5005608F6005708F70011
:101390008A11D5218A1583162008F4002108F5004A
:1013A0002208F6002308F7008A11D5218A15700853
:1013B000CC007108CD007208CE007308CF00700811
:1013C000F4007108F5007208F6007308F7000030A9
:1013D000F0000030F1007F30F2008630F3008A1117
:1013E00012248A15013003180030F0007008031928
:1013F000022A0030CC000030CD007F30CE00863095
:10140000CF001C2AF401F501F601F7014C08F000A9
:101410004D08F1004E08F2004F08F3008A11122423
:101420008A15013003180030F000700803191C2AD7
:10143000CC01CD01CE01CF014C08F0004D08F100E8
:101440004E08F2004F08F3008A11CA248A1570086A
:10145000ED008A1190248A15A310241E64280130FF
:101460008316AE008A113D208A15ED018A11902461
:081470008A15A50124130800F0
:101478008A1162278A158A11E9268A158A11D126C6
:101488008A158A1144268A1567308316990018151B
:101498008A11A0268A152930FB009630FC007F307F
:1014A800FD00FD0B552AFC0B552AFB0B552A013074
:1014B8008316AE008A113D208A158A1170268A1576
:1014C8002C2B01308316AB000130AC003C30AD0052
:1014D8008A11B7208A1501308316AB001030AC0092
:1014E8003E30AD008A11B7208A1501308316AB0053
:1014F8000630AC005630AD008A11B7208A156F301F
:101508008316AA008A11C9218A1575308316AA0084
:101518008A11C9218A1574308316AA008A11C92133
:101528008A15A41D9B2A2417A41323100020382BE6
:1015380001308316AB000130AC003C30AD008A119D
:10154800B7208A1501308316AB001030AC003E304E
:10155800AD008A11B7208A1501308316AB0004301C
:10156800AC004330AD008A11B7208A15613083166C
:10157800AA008A11C9218A1572308316AA008A1115
:10158800C9218A1567308316AA008A11C9218A15CC
:1015980061308316AA008A11C9218A15A41DDA2A86
:1015A8002413A41723108A1150268A15382B0130CA
:1015B8008316AB000130AC003C30AD008A11B72077
:1015C8008A1501308316AB001030AC003E30AD00F8
:1015D8008A11B7208A1501308316AB000430AC009D
:1015E8004530AD008A11B7208A156C308316AA00E1
:1015F8008A11C9218A1565308316AA008A11C92162
:101608008A1574308316AA008A11C9218A15723086
:101618008316AA008A11C9218A156F308316AA0079
:101628008A11C9218A156E308316AA008A11C92128
:101638008A1573308316AA008A11C9218A15A41D38
:101648002B2B2413A41323148A11B0268A15382BA4
:101658003B08003A0319652A3B08013A03199C2AFA
:0C1668003B08023A0319DB2A612A392BE7
:020E3A00003482
:020E3C00003480
:020E3E0000347E
:080E40000034003400340034DA
:040E4800003400343E
:100E4C004C3461346234203443346F346E34743433
:0E0E5C0072346F346C34653420343134003419
:020E6A00003452
:080E6C000034003470348434BA
:020E7400013447
:100E7600493446345334503420342D3420345334DA
:060E860050344F3400342B
:080E8C0000340034003400348E
:080E9400003400347034843492
:080E9C0000340034003400347E
:080EA400003400340034003476
:080EAC000034003400347D34F1
:080EB400003400340034003466
:080EBC0000340034003400345E
:02400E00022F7F
:00000001FF
