:040000008A15442AEF
:10000800FF00030E83018316AD000A08AC008A01C5
:1000180070088312A1000B1D1E28DF0A241F152853
:10002800A3145F080A3A031D1B286127DF010B117F
:10003800633081002108F00083162C088A002D0EF9
:080048008300FF0E7F0E09008A
:0A005000000000000000000008009E
:10005A001D3083120313FC009130FD00FD0B332881
:06006A00FC0B3328080026
:10007000423083120313FD00FD0B3C2800000800F2
:1000800083160313BD1B4728831286124928831247
:10009000861683163D1B4F288312061251288312A1
:1000A00006168316BD1A5728831206115928831283
:1000B000061583163D1A5F28831286106128831265
:1000C00086146F18652805156628051185152820E2
:1000D00085118316BD196F28831286127128831229
:1000E000861683163D197728831206127928831203
:1000F00006168316BD187F288312061181288312E5
:10010000061583163D1887288312861089288312C6
:1001100086146F188D2805158E2805118515282041
:0E01200085116F1C95282D2096283820080088
:0E012E00F201F101F001F801F30100300800C8
:10013C007B15FB1FA8280130F300F201F101F0013F
:08014C00FA0DF20CFF3008006F
:08015400FA1FF213003008004D
:10015C00FB14FB1FB828FF30F300F200F100F00095
:08016C00FA0DF20CFF3008004F
:10017400CC28803083160313BA00DF28C030BA00BD
:10018400DF289430BA00DF28D430BA00DF2880306A
:10019400BA00DF28831603133A08013A0319BB286F
:1001A4003A08023A0319C0283A08033A0319C32843
:1001B4003A08043A0319C628C9283B03F0003A0850
:1001C400F0077008BA0083126F1470088316BD001C
:1001D40040206F1083163C08BD0040206F140800B7
:1001E400A0017208031D07297108F2007008F100CC
:1001F400F001A0157208031D07297108F200F1012E
:10020400A01120167208031915292008F302031DF2
:10021400031C19290310F21B1D29F00DF10DF20D19
:10022400F30B0D2919290130FC00972020290230F5
:0E023400FC009E2020290430FC00AA200800B7
:1002420083120313FD01F8017008031900347406C8
:10025200FA00FA1BFD09FB01F41F3129F409F40A23
:10026200F01F3529F009F00A70087404FA00FA1B2D
:1002720059297408F802F00D700DF80D7408F8078A
:10028200F00D0630FC00700DF80D74087018F802BD
:10029200701CF807F00DFC0B4429701CF8077B1842
:1002A2006729FD1F0034F009F00AF809F80A003442
:1002B200F41F6429F01B61297008F800F00152292B
:1002C200F001F00A0034F009FB0A3A29F80A74082E
:1002D2007802031D5229F801F00AF01F5229FF3457
:0202E200080012
:0E02E4001D3083120313FD00FD0B7629080068
:1002F2007C18AF29FC1880297C19CE297929A00104
:100302007208031DA0297108F2007008F100780834
:10031200F000F801A0157208031DA0297108F2006F
:100322007008F100F001A01120167208031DA02927
:100332007108F200F101A01572080319C229200800
:10034200F302031D031CC6290310F21BAF29F80D8B
:10035200F00DF10DF20DF30BA629C6297B1B701CC3
:10036200CA29F81FCA29F00A0319F10A0319F20A65
:10037200031DCA29F20CF10CF00CF30A0319CE2961
:10038200CA290130FC009720D1290230FC009E20AE
:10039200D1290430FC00AA20D1290830FC00AE206B
:0403A200000008004F
:1003A6007B14FB1FDE29F201FA1FFF30F200F10079
:0A03B600F000FA0DF20CFF30080011
:1003C0008312031372087606A000F801F90173087E
:1003D0007702031C032A7708FD007308F7007D08E5
:1003E000F3007608FD007208F6007D08F20075083B
:1003F000FD007108F5007D08F1007408FD0070082B
:10040000F4007D08F000770803197C2A7208FA00CE
:10041000F217F61777087302F7000319362A083027
:100420007702031C2C2AF7007408F9007508F40001
:100430007608F500F60108307702031C2C2AF70035
:100440007408F9007508F400F50108307702031C00
:100450002C2A7A08F2007C2A77080319362A03101E
:10046000F60CF50CF40CF90CF70B2F2AA01F432AFD
:10047000F909F409F509F609F90A0319F40A031947
:10048000F50A0319F60A7908F80774080318740FB7
:10049000F00775080318750FF10776080318760F33
:1004A000F207A01B5C2A031C6C2AF20CF10CF00C66
:1004B000F80CF30F6C2A782A0318702AF809F0094F
:1004C000F109F209F80A0319F00A0319F10A0319EC
:1004D000F20A8030FA06742A0130FC0079217E2A63
:1004E0000230FC0079217E2A0430FC00F2207E2AB2
:1004F0000830FC00AE207E2A0030FC00000008001E
:10050000831203136F1083163908BD0040206F1447
:020510000800E1
:1005120083160313B9010A30F40083122508F00090
:1005220021210A30F40021217808F00030307007D0
:100532008316BC000A30F40083122508F000212142
:100542007808F000303070078316B9000230BA0024
:100552000C30BB00BA2002308316BA000D30BB004B
:100562002E30BC00BA2002308316BA000E30BB0017
:080572003908BC00BA200800A2
:10057A00C730831203139F052208F000F00D701094
:10058A00F00D7010F00D701070089F0472211F1585
:10059A001F1DD12A0000CD2A1E08F100F001831682
:0A05AA001E08F0040030F104080000
:0605B400FB15FF300800FA
:1005BA0083120313FB01FA01F9018030F800F10CF0
:1005CA00F00C031CF12A7408F90775080318750F53
:1005DA00FA070318FB0A0310F01FF92A7408FA072E
:1005EA0075080318750FFB07FB0CFA0CF90CF80CCD
:1005FA00031CE42A7B08F3007A08F2007908F10068
:06060A007808F000080072
:10061000831203137408003A031D232B7508003A54
:10062000031D232B7608003A031D232B7708003A7D
:10063000031D232BFF30F000FF30F1007F30F2006C
:10064000FF30F300BE2B8312031377080319B22B7C
:1006500073080319B52B720876068039FA00F21771
:10066000F617A0017208F8007108FC007008FD0080
:100670007408FD027508031C750FFC027608031C44
:10068000760FF802F801FC01FD01031C4E2B03104C
:10069000F20CF10CF00CF80C0130A0007708F3021A
:1006A000031C582B7E302007F3070318B82B5D2B53
:1006B0007E302007F307031CBB2B1830FA07FD0D13
:1006C000FC0DF80DF00DF10DF20DA00D7408F00207
:1006D0007508031C750FF1027608031C760FF202F1
:1006E000760DA004201C762B7D14812B7408F00756
:1006F00075080318750FF10776080318760AF207D4
:100700007D10FA031F307A05031D5F2B7B1B7D1CB8
:10071000A82B0310F00DF10DF20DA00D7408F002DE
:100720007508031C750FF1027608031C760FF202A0
:10073000760D20040139FD070318FC0A0319F80A95
:10074000031DA82BF80CFC0CFD0CF30A0319B82BA5
:10075000FA1FF8137808F2007C08F1007D08F00019
:100760000030BD2B0130DA22BD2B02309720BD2B8B
:0E0770000430AE20BD2B08309E200000080093
:10077E0083120313FB0173080319FC2B7208FA0092
:10078E00F2178E30F302F31FFF2BF309F30A083032
:10079E007302031CE22BF300F10D7208F100F2015B
:1007AE0008307302031CE22BF300F10DF101730804
:1007BE00031D0310EA2B73080319EA2B0310F20C26
:1007CE00F10CF30BE52B7B1B711CF42B031CF42B90
:1007DE00F10A0319F20AF21B0B2CFA1F0E2CF20966
:1007EE00F109F10A0319F20A0E2CF201F1010E2C95
:1007FE007B14FB1F112CF201FA1F112CFF30F2009B
:10080E00F100FA0DF20C112C0130FC00132C00300B
:10081E00FC00132CFF30FC00FC080319172CD3210D
:0A082E007108F0007208F1000800E4
:100838002E2C803083160313B400412CC030B40032
:10084800412C9430B400412CD430B400412C803079
:10085800B400412C831603133408013A03191D2CE4
:100868003408023A0319222C3408033A0319252CB8
:100878003408043A0319282C2B2C3503F0003408CB
:10088800F0077008B4007008BD0040206F10831690
:10089800B701370836078400000803195C2C3708AD
:1008A800360784000008B90080228316B70A4D2C49
:0608B80083126F1408001A
:0C08BE00831203138030F606E0210800CE
:1008CA0083120313FA017308031D7A147708031DB0
:1008DA00FA147A080319B12C033A03197C2C7A18F2
:1008EA00792CF61FAF2CAD2CF21FAD2CAF2C720851
:1008FA008039FA00F21376088039F6137A0603195A
:10090A008A2C7A080319AD2CAF2C770873020319C5
:10091A00912C031CA52CA92C760872020319982C79
:10092A00031CA52CA92C7508710203199F2C031C02
:10093A00A52CA92C740870020319B12C0318A92C30
:10094A00FA080319AF2CAD2CFA080319AD2CAF2CF9
:10095A000314080003100800031403150800080014
:10096A0083160313B601B7018312CE0A4E08073C59
:10097A000318C02CCE014E08F000F00D701070085C
:10098A004F3E8316B8008312A201BD2238088400A4
:10099A00700880007108840A8000B401B5018030B3
:1009AA003506F00080307002031DDD2C0830340259
:1009BA000318F42C3408F0003508F100F00DF10D9D
:1009CA00701070084F3E84000008B607840A0008B9
:1009DA000318013EB707B40A0319B50AD42C033029
:1009EA00F2003608F0003708F10072080319042DE6
:1009FA00F10CF00CF113711BF117FF3EFB2C0800F0
:100A0A008316031385110511861006110612861224
:100A1A0083128511051186120612061186102D20E1
:100A2A002D202D20061586148515282085112D20A8
:100A3A008515282085112D208515282085112D2022
:100A4A0086108515282085112D20851528208511C9
:100A5A00061186168515282085112D2086128614E2
:100A6A0085152820851186108515282085112D20A9
:100A7A0085152820851186148515282085112D2095
:100A8A0086108515282085118616061606158614E1
:0C0A9A008515282085112D206F14080000
:100AA600831603130711831212150C3097040800DE
:100AB60083120313FB01FC01FA0173080319882D45
:100AC600FA13F2178630F302F31B6C2D03196C2D03
:100AD6008A2DF309F30A08307302031C792DF300FB
:100AE600F20DF2017308031D0310802D730803191C
:100AF600802D0310F20CF30B7C2D7B1B721C882DB2
:100B0600031C882DF20A03198F2DF101922D7B14F7
:100B1600FB1F952DF101952D0130FC00972D00301E
:100B2600FC00972DFF30FC00FC0803199B2DD321F8
:060B36007208F000080047
:100B3C0083120313FB017308031D77080319F52DAA
:100B4C0072087606FA007708F3077E30031CB22D84
:100B5C00F3020318F82DB52DF302031CFB2D7208BC
:100B6C00F8007108FC007008FD00F817F617031068
:100B7C00F201F101F0011830A0007D1CCF2D74089A
:100B8C00F00775080318750FF10776080318760F30
:100B9C00F207F20CF10CF00CF80CFC0CFD0C031031
:100BAC00A00BC32DF21BDF2DF80DF00DF10DF20D86
:100BBC00F3037B1B701CF12DF81FF12DF00A0319A8
:100BCC00F10A0319F20A031DF12DF20CF10CF00CD1
:100BDC00F30A0319F82DFA1FF2130030FD2D013022
:100BEC009720FD2D0230AE20FD2D04309E200000FC
:020BFC000800EF
:100BFE00831203137008F8007108F000F101F2017E
:100C0E00F301FB01FC019630F300FA01F01F152EE3
:100C1E00F809F009F80A0319F00AFA177008F1003A
:0C0C2E007808F000F801F201F220080044
:100C3A00831603131208013EF000F1010318F10AAA
:100C4A003408F400F501DD220630F2007008F400E1
:100C5A007108F50072080319372EF50CF40CF51318
:100C6A00FF3E302E0430F1007408F00071080319B9
:100C7A00422EF00D7010FF3E3C2E30307005F3000E
:100C8A007408F0007508F100F10CF00CF113F10C86
:100C9A00F00CF113700895000F309705730897044C
:020CAA00080040
:0C0CAC0083120313950117129712080021
:0E0CB800831203136E088A006D088200080084
:100CC600831203130618682EA414061C792EA41C7E
:100CD600792EA410A50A8030193AF0008030250636
:100CE60070020318782E1930A500A41686197C2EDA
:100CF6002415861D8C2E241D8C2E2411A5038030D0
:100D06002506F0008030003A700203188B2EA501EC
:0C0D1600A416A41E902E8922A41208002E
:100D22008312031312149214F9308316920056267A
:0A0D32008316B4011D2653250800A6
:100D3C00013083160313BA000130BB002030BC0015
:100D4C00BA2001308316BA001030BB002030BC0032
:100D5C00BA2001308316BA000C30BB003A30BC000C
:100D6C00BA20241EB72E01308316BD004020A413D8
:020D7C0008006D
:100D7E0083160313981690308312980083168717E4
:100D8E00071383128C1ECE2E1A08F000C82E0800F0
:100D9E00013083160313BA000130BB002030BC00B3
:100DAE00BA2001308316BA001030BB002030BC00D0
:100DBE00BA2001308316BA000930BB004630BC00A1
:100DCE00BA20241EE82E01308316BD0040200800F4
:100DDE005C268A110A128000840AED0A0319EE0AB3
:080DEE00F003031DEF2E0800C5
:100DF600052501308316BD0040200C308316BD004A
:100E0600402001308316B4000230B5003F30B600F2
:100E16001C2402308316B4000330B5003430B6000B
:040E26001C24080080
:100E2A008312031306181A2FA414A41C242F061CB9
:100E3A00242FA410E00A01308316BD004020861931
:100E4A00272F2415241D312F861D312F2411E0034D
:100E5A0001308316BD00402080306006F0008030EB
:100E6A00003A700203183B2F0230E0008030023A49
:100E7A00F0008030600670020318442FE001080079
:100E8A00C9308316031386003330850007309C006F
:100E9A00013083129F008E3083169F000710831241
:100EAA000710850186018701E0308B0063308100DD
:080EBA00873083168100080057
:100EC20083120313061B682FA41524126C2F861B92
:080ED2006C2F2416A411080086
:100F8800233084004A3083120313F0006D30ED00E3
:100F98000730EE00EF26A03084000C3083120313D4
:0E0FA800F000B730ED000730EE00EF26080035
:10100000013083160313BA000130BB002030BC004E
:101010008A11BA208A1501308316BA001030BB003D
:101020002030BC008A11BA208A1501308316BA001C
:101030000A30BB003A30BC008A11BA208A1502304F
:101040008316BA000230BB005330BC008A11BA20AC
:101050008A1565308316B9008A1180228A1574308A
:101060008316B9008A1180228A1550308316B90080
:101070008A1180228A156F308316B9008A11802266
:101080008A1569308316B9008A1180228A156E305C
:101090008316B9008A1180228A1574308316B9002C
:1010A0008A1180228A153A308316B9008A1180226B
:1010B0008A1502308316BA000F30BB004D30BC00D9
:1010C0008A11BA208A15A4168A1163268A15A31CD0
:1010D000342A8A11B5248A157008B2007108B30049
:1010E00032088312AE00831633088312AF0025083E
:1010F000F0000030F01BFF30F1008A11FF258A1547
:101100003330F4003330F5002330F6008330F7003D
:101110008A119E258A1570088316AE007108AF00EB
:101120007208B0007308B1002E088312AA0083165B
:101130002F088312AB00831630088312AC0083168D
:1011400031088312AD0083163208F0003308F10035
:101150008A11FF258A157008F4007108F5007208DD
:10116000F6007308F70083162E08F0002F08F10030
:101170003008F2003108F3008A115F248A157008E4
:10118000A6007108A7007208A8007308A9006508E6
:10119000F4006608F5006708F6006808F7008A1191
:1011A000E0218A150030F4000030F5000030F60030
:1011B0008030F7008A1108238A156908F4006A084C
:1011C000F5006B08F6006C08F7008A119E258A1559
:1011D0000A30F400D730F5002330F6007830F700FD
:1011E0008A119E258A153008F4003108F50032086E
:1011F000F6003308F7008A11E0218A157008B00064
:101200007108B1007208B2007308B3007008F400EE
:101210007108F5007208F6007308F7000030F0005E
:101220000030F1007F30F2008630F3008A1165242F
:101230008A15013003180030F000700803192929BD
:101240000030B0000030B1007F30B2008630B30013
:101250004B290030F4000030F500FF30F6008630F6
:10126000F7003008F0003108F1003208F2003308CE
:10127000F3008A1165248A15013003180030F0004C
:10128000700803194B290030B0000030B100FF3066
:10129000B2008630B3006508F4006608F500670800
:1012A000F6006808F7002608F0002708F100280873
:1012B000F2002908F3008A115F248A158316280892
:1012C000F4002908F5002A08F6002B08F7008A1117
:1012D0009E258A150A30F400D730F5002330F60039
:1012E0007830F7008A1108238A1570088316AE003B
:1012F0007108AF007208B0007308B1002E088312A5
:10130000E10083162F088312E2008316300883124F
:10131000E300831631088312E4002608E50027085D
:10132000E6002808E7002908E8002608F00027085A
:10133000F1002808F2002908F3008A11BF238A155A
:101340007008F4007108F500F50CF40CF513751B2A
:10135000F517F50CF40CF513751BF5177408F00070
:101360007508F1008A11FF258A1583162008F400FC
:101370002108F5002208F6002308F7008A119E25AF
:101380008A153008F4003108F5003208F6003308F9
:10139000F7008A11E0218A1583162E08F4002F0821
:1013A000F5003008F6003108F7008A11E0218A15AF
:1013B00070088316A4007108A5007208A6007308BF
:1013C000A7007008F4007108F5007208F6007308B1
:1013D000F7000030F0000030F1007F30F20086307E
:1013E000F3008A1165248A15013003180030F000DB
:1013F00070080319052A00308316A4000030A500E8
:101400007F30A6008630A700212A8316F401F5015B
:10141000F601F7012408F0002508F1002608F20083
:101420002708F3008A1165248A150130031800305B
:10143000F00070080319212A8316A401A501A60152
:10144000A70183162408F0002508F1002608F20001
:101450002708F3008A115B258A1570088316B400EB
:101460008A111D268A15A310241E642801308316B4
:10147000BD008A1140208A158316B4018A111D26E9
:081480008A15A50124130800E0
:101488008A11C4278A158A1145278A158A11FB26CD
:101498008A158A1191268A156730831699001815BE
:1014A8008A11BF268A152930FB009630FC007F3050
:1014B800FD00FD0B5D2AFC0B5D2AFB0B5D2A01304C
:1014C8008316BD008A1140208A158A1115278A15AE
:1014D800342B01308316BA000130BB003C30BC000D
:1014E8008A11BA208A1501308316BA001030BB0061
:1014F8003E30BC008A11BA208A1501308316BA0022
:101508000630BB005630BC008A11BA208A156F30ED
:101518008316B9008A1180228A1575308316B9009E
:101528008A1180228A1574308316B9008A118022A4
:101538008A15A41DA32A2417A41323100020402BC6
:1015480001308316BA000130BB003C30BC008A1160
:10155800BA208A1501308316BA001030BB003E301D
:10156800BC008A11BA208A1501308316BA000430EB
:10157800BB004330BC008A11BA208A15613083163B
:10158800B9008A1180228A1572308316B9008A112F
:1015980080228A1567308316B9008A1180228A153D
:1015A80061308316B9008A1180228A15A41DE22AA7
:1015B8002413A41723108A11CF268A15402B013033
:1015C8008316BA000130BB003C30BC008A11BA2037
:1015D8008A1501308316BA001030BB003E30BC00BB
:1015E8008A11BA208A1501308316BA000430BB006C
:1015F8004530BC008A11BA208A156C308316B900B0
:101608008A1180228A1565308316B9008A118022D2
:101618008A1574308316B9008A1180228A157230AF
:101628008316B9008A1180228A156F308316B90093
:101638008A1180228A156E308316B9008A11802299
:101648008A1573308316B9008A1180228A15A41D61
:10165800332B2413A41323148A119E268A15402B96
:101668006008003A03196D2A6008013A0319A42A90
:0C1678006008023A0319E32A692A412B9A
:020EDA000034E2
:020EDC000034E0
:020EDE000034DE
:080EE00000340034003400343A
:080EE800003400340034003432
:040EF0000034003496
:080EF400003400340034003426
:100EFC00493446345334503420342D342034533454
:060F0C0050344F340034A4
:100F12004C3461346234203443346F346E3474346C
:0E0F220072346F346C34653420343134003452
:020F300000348B
:100F3200003400340034003400340034003400340F
:100F420000340034003400340034003400340034FF
:020F5200003469
:020F5400003467
:080F56000034003400347D3446
:080F5E000034003400340034BB
:080F66000034003470348434BF
:080F6E000034003470348434B7
:080F76000034003400340034A3
:080F7E000034003400347D341E
:02400E00022F7F
:00000001FF
