:040000008A153C2AF7
:10000800FF00030E8301ED000A08EE008A01700864
:10001800A1000B1D1C28CD0A241F1328A3144D086A
:100028000A3A031D19285027CD010B1163308100AE
:100038002108F0006E088A006D0E8300FF0E7F0E07
:020048000900AD
:0A004A0000000000000000000800A4
:100054001D3083120313FC009130FD00FD0B30288A
:06006400FC0B302808002F
:10006A00423083120313FD00FD0B392800000800FB
:10007A0083160313B01B4428831286124628831260
:10008A0086168316301B4C28831206124E288312BA
:10009A0006168316B01A542883120611562883129C
:1000AA0006158316301A5C28831286105E2883127E
:1000BA0086146C18622805156328051185152520F4
:1000CA0085118316B0196C28831286126E28831242
:1000DA00861683163019742883120612762883121C
:1000EA0006168316B0187C28831206117E288312FE
:1000FA0006158316301884288312861086288312E0
:10010A0086146C188A2805158B2805118515252053
:0E011A0085116C1C92282A209328352008009D
:0E012800F201F101F001F801F30100300800CE
:100136007B15FB1FA5280130F300F201F101F00148
:08014600FA0DF20CFF30080075
:08014E00FA1FF2130030080053
:10015600FB14FB1FB528FF30F300F200F100F0009E
:08016600FA0DF20CFF30080055
:10016E00C928803083160313AD00DC28C030AD00E3
:10017E00DC289430AD00DC28D430AD00DC28803093
:10018E00AD00DC28831603132D08013A0319B82895
:10019E002D08023A0319BD282D08033A0319C02869
:1001AE002D08043A0319C328C6282E03F0002D0883
:1001BE00F0077008AD0083126C1470088316B0003F
:1001CE003D206C1083162F08B0003D206C140800E3
:1001DE007C182529FC18F6287C194429EF28A00143
:1001EE007208031D16297108F2007008F1007808D4
:1001FE00F000F801A0157208031D16297108F2000F
:10020E007008F100F001A01120167208031D1629C6
:10021E007108F200F101A01572080319382920089F
:10022E00F302031D031C3C290310F21B2529F80DB4
:10023E00F00DF10DF20DF30B1C293C297B1B701CEC
:10024E004029F81F4029F00A0319F10A0319F20A8E
:10025E00031D4029F20CF10CF00CF30A031944298A
:10026E0040290130FC00942047290230FC009B20DD
:10027E0047290430FC00A72047290830FC00AB209A
:04028E000000080064
:100292007B14FB1F5429F201FA1FFF30F200F10018
:0A02A200F000FA0DF20CFF30080026
:0E02AC001D3083120313FD00FD0B5A290800BC
:1002BA00A0017208031D72297108F2007008F1008A
:1002CA00F001A0157208031D72297108F200F101EC
:1002DA00A01120167208031980292008F302031DB1
:1002EA00031C84290310F21B8829F00DF10DF20D6D
:1002FA00F30B782984290130FC0094208B290230E1
:0E030A00FC009B208B290430FC00A72008007B
:1003180083120313FD01F8017008031900347406F1
:10032800FA00FA1BFD09FB01F41F9C29F409F40AE1
:10033800F01FA029F009F00A70087404FA00FA1BEB
:10034800C4297408F802F00D700DF80D7408F80748
:10035800F00D0630FC00700DF80D74087018F802E6
:10036800701CF807F00DFC0BAF29701CF8077B1800
:10037800D229FD1F0034F009F00AF809F80A003400
:10038800F41FCF29F01BCC297008F800F001BD2913
:10039800F001F00A0034F009FB0AA529F80A7408EC
:1003A8007802031DBD29F801F00AF01FBD29FF34AA
:0203B80008003B
:1003BA008312031372087606A000F801F901730884
:1003CA007702031C002A7708FD007308F7007D08EE
:1003DA00F3007608FD007208F6007D08F200750841
:1003EA00FD007108F5007D08F1007408FD00700831
:1003FA00F4007D08F00077080319792A7208FA00D8
:10040A00F217F61777087302F7000319332A083030
:10041A007702031C292AF7007408F9007508F4000A
:10042A007608F500F60108307702031C292AF7003E
:10043A007408F9007508F400F50108307702031C06
:10044A00292A7A08F200792A77080319332A03102D
:10045A00F60CF50CF40CF90CF70B2C2AA01F402A09
:10046A00F909F409F509F609F90A0319F40A03194D
:10047A00F50A0319F60A7908F80774080318740FBD
:10048A00F00775080318750FF10776080318760F39
:10049A00F207A01B592A031C692AF20CF10CF00C72
:1004AA00F80CF30F692A752A03186D2AF809F0095E
:1004BA00F109F209F80A0319F00A0319F10A0319F2
:1004CA00F20A8030FA06712A0130FC00EF207B2AFA
:1004DA000230FC00EF207B2A0430FC005D217B2ADD
:1004EA000830FC00AB207B2A0030FC00000008002A
:1004FA0083160313AC010A30F40083122508F000B6
:10050A008C210A30F4008C217808F0003030700712
:10051A008316AF000A30F40083122508F0008C21FC
:10052A007808F000303070078316AC000230AD0056
:10053A000C30AE00B72002308316AD000D30AE008D
:10054A002E30AF00B72002308316AD000E30AE0059
:08055A002C08AF00B7200800D7
:10056200831203136C1083162C08B0003D206C1408
:0205720008007F
:10057400831203137008F8007108F000F101F2010E
:10058400F301FB01FC019630F300FA01F01FD02ABD
:10059400F809F009F80A0319F00AFA177008F100CB
:0C05A4007808F000F801F2015D21080069
:0605B000FB15FF300800FE
:1005B60083120313FB017308031D77080319322BFB
:1005C60072087606FA007708F3077E30031CEF2AD6
:1005D600F3020318352BF22AF302031C382B720898
:1005E600F8007108FC007008FD00F817F6170310F4
:1005F600F201F101F0011830A0007D1C0C2B7408EB
:10060600F00775080318750FF10776080318760FBB
:10061600F207F20CF10CF00CF80CFC0CFD0C0310BC
:10062600A00B002BF21B1C2BF80DF00DF10DF20D9B
:10063600F3037B1B701C2E2BF81F2E2BF00A0319BD
:10064600F10A0319F20A031D2E2BF20CF10CF00C21
:10065600F30A0319352BFA1FF21300303A2B013037
:1006660094203A2B0230AB203A2B04309B2000001A
:0206760008007A
:10067800C730831203139F052208F000F00D701095
:10068800F00D7010F00D701070089F0456211F15A2
:100698001F1D502B00004C2B1E08F100F001831683
:0A06A8001E08F0040030F104080001
:1006B20083120313FB0173080319962B7208FA00C5
:1006C200F2178E30F302F31F992BF309F30A083065
:1006D2007302031C7C2BF300F10D7208F100F2018E
:1006E20008307302031C7C2BF300F10DF101730837
:1006F200031D0310842B73080319842B0310F20CBF
:10070200F10CF30B7F2B7B1B711C8E2B031C8E2B8E
:10071200F10A0319F20AF21BA52BFA1FA82BF20900
:10072200F109F10A0319F20AA82BF201F101A82B2F
:100732007B14FB1FAB2BF201FA1FAB2BFF30F20035
:10074200F100FA0DF20CAB2B0130FC00AD2B0030A6
:10075200FC00AD2BFF30FC00FC080319B12B492132
:0A0762007108F0007208F1000800B1
:10076C0083120313FB01FA01F9018030F800F10C3C
:10077C00F00C031CCA2B7408F90775080318750FC5
:10078C00FA070318FB0A0310F01FD22B7408FA07A0
:10079C0075080318750FFB07FB0CFA0CF90CF80C19
:1007AC00031CBD2B7B08F3007A08F2007908F100DA
:0607BC007808F0000800BF
:0C07C200831203138030F606DD210800CE
:1007CE0083120313FB01FC01FA0173080319142CA5
:1007DE00FA13F2178630F302F31BF82B0319F82BDA
:1007EE00162CF309F30A08307302031C052CF300D0
:1007FE00F20DF2017308031D03100C2C730803197C
:10080E000C2C0310F20CF30B082C7B1B721C142CFB
:10081E00031C142CF20A03191B2CF1011E2C7B1441
:10082E00FB1F212CF101212C0130FC00232C003068
:10083E00FC00232CFF30FC00FC080319272C492157
:06084E007208F000080032
:1008540083120313A2013C237008AA007108AB00A1
:1008640083124B0883162A02F00083124C08031CDF
:10087400013E83162B02F100BA22CD30F400CC30B5
:10088400F5004C30F6007D30F700DB22700883164B
:10089400A6007108A7007208A8007308A9008312B3
:1008A4004B08F0004C08F100BA2283162608F40025
:1008B4002708F5002808F6002908F700DD21592348
:1008C40083162A088312CB0083162B088312CC00CC
:0208D40008001A
:1008D600831203130618702CA414061C812CA41C66
:1008E600812CA410A50A8030193AF0008030250624
:1008F60070020318802C1930A500A4168619842CC2
:100906002415861D942C241D942C2411A5038030B7
:100916002506F0008030003A70020318932CA501DA
:0C092600A416A41E982C7D22A412080028
:1009320083120313FA017308031D7A147708031D47
:10094200FA147A080319E52C033A0319B02C7A1821
:10095200AD2CF61FE32CE12CF21FE12CE32C7208E4
:100962008039FA00F21376088039F6137A060319F1
:10097200BE2C7A080319E12CE32C770873020319C1
:10098200C52C031CD92CDD2C760872020319CC2C41
:10099200031CD92CDD2C750871020319D32C031CFE
:1009A200D92CDD2C740870020319E52C0318DD2CF8
:1009B200FA080319E32CE12CFA080319E12CE32CC1
:1009C20003140800031008000314031508000800AC
:1009D200831203137408003A031D042D7508003AAC
:1009E200031D042D7608003A031D042D7708003AF2
:1009F200031D042DFF30F000FF30F1007F30F200C4
:100A0200FF30F3009F2D8312031377080319932DF0
:100A120073080319962D720876068039FA00F217C8
:100A2200F617A0017208F8007108FC007008FD00BA
:100A32007408FD027508031C750FFC027608031C7E
:100A4200760FF802F801FC01FD01031C2F2D0310A3
:100A5200F20CF10CF00CF80C0130A0007708F30254
:100A6200031C392D7E302007F3070318992D3E2DE4
:100A72007E302007F307031C9C2D1830FA07FD0D6A
:100A8200FC0DF80DF00DF10DF20DA00D7408F00241
:100A92007508031C750FF1027608031C760FF2022B
:100AA200760DA004201C572D7D14622D7408F007CA
:100AB20075080318750FF10776080318760AF2070E
:100AC2007D10FA031F307A05031D402D7B1B7D1C10
:100AD200892D0310F00DF10DF20DA00D7408F00236
:100AE2007508031C750FF1027608031C760FF202DB
:100AF200760D20040139FD070318FC0A0319F80AD0
:100B0200031D892DF80CFC0CFD0CF30A0319992D19
:100B1200FA1FF8137808F2007C08F1007D08F00053
:100B220000309E2D0130D8229E2D023094209E2D21
:0E0B32000430AB209E2D08309B2000000800F0
:0E0B4000831203136B088A006A088200080003
:100B4E0083160313851105118610061106128612DF
:100B5E0083128511051186120612061186102A209F
:100B6E002A202A20061586148515252085112A206F
:100B7E008515252085112A208515252085112A20E9
:100B8E0086108515252085112A208515252085118D
:100B9E00061186168515252085112A2086128614A3
:100BAE0085152520851186108515252085112A206D
:100BBE0085152520851186148515252085112A2059
:100BCE00861085152520851186160616061586149F
:0C0BDE008515252085112A206C140800C4
:100BEA00831603130711831212150C309704080099
:0C0BFA00831203139501171297120800D4
:100C0600831603131208013EF000F1010318F10ADE
:100C160083126F08F400F501B6230630F20070085F
:100C2600F4007108F500720803191E2EF50CF40C79
:100C3600F513FF3E172E0430F1007408F00071081A
:100C46000319292EF00D7010FF3E232E303070054B
:100C5600F3007408F0007508F100F10CF00CF113C4
:100C6600F10CF00CF113700895000F30970573081E
:040C760097040800D7
:100C7A004F2E803083160313A600622EC030A600C2
:100C8A00622E9430A600622ED430A600622E8030E6
:100C9A00A600622E831603132608013A03193E2E74
:100CAA002608023A0319432E2608033A0319462E48
:100CBA002608043A0319492E4C2E2703F000260869
:100CCA00F0077008A6007008B0003D206C10EF0114
:100CDA006F08831628078400000803197E2E8312E2
:100CEA006F088316280784000008AC00B122EF0AB7
:080CFA006D2E83126C1408003A
:100D0200013083160313AD000130AE002030AF0076
:100D1200B72001308316AD001030AE002030AF0096
:100D2200B72001308316AD000C30AE003A30AF0070
:100D3200B720241E9A2E01308316B0003D20A41342
:020D42000800A7
:100D4400013083160313AD000130AE002030AF0034
:100D5400B72001308316AD001030AE002030AF0054
:100D6400B72001308316AD000930AE004630AF0025
:100D7400B720241EBB2E01308316B0003D2008008E
:100D84008312031312149214F93083169200FD2572
:080D9400EF010326F52508001C
:100D9C0083160313981690308312980083168717C6
:100DAC00071383128C1EDD2E1A08F000D72E0800B4
:100DBC00831203130618E32EA414A41CED2E061C98
:100DCC00ED2EA410CA0A01308316B0003D208619FE
:100DDC00F02E2415241DFA2E861DFA2E2411CA037A
:100DEC0001308316B0003D2080304A06F000803080
:100DFC00003A70020318042F0230CA008030023A05
:100E0C00F00080304A06700203180D2FCA0108004A
:100E1C00C9308316031386003330850007309C00DD
:100E2C00013083129F008E3083169F0007108312AF
:100E3C000710850186018701E0308B00633081004B
:080E4C008730831681000800C5
:100E5400A72501308316B0003D200C308316B00066
:100E64003D2001308316A6000230A7003B30A800C5
:100E74003D2602308316A6000330A7003030A800B8
:040E84003D260800FF
:100E8800A0258A110A128000840AEA0A0319EB0ACB
:080E9800F003031D442F0800C4
:100EA00083120313061B572FA41524125B2F861BD6
:080EB0005B2F2416A4110800B9
:100F480023308400473083120313F0005C30EA003A
:080F58000730EB0044270800FC
:10100000013083160313AD000130AE002030AF0075
:101010008A11B7208A1501308316AD001030AE005A
:101020002030AF008A11B7208A1501308316AD0039
:101030000A30AE003A30AF008A11B7208A1502306C
:101040008316AD000230AE005330AF008A11B720D6
:101050008A1565308316AC008A11B1228A15743066
:101060008316AC008A11B1228A1550308316AC0069
:101070008A11B1228A156F308316AC008A11B12211
:101080008A1569308316AC008A11B1228A156E3038
:101090008316AC008A11B1228A1574308316AC0015
:1010A0008A11B1228A153A308316AC008A11B12216
:1010B0008A1502308316AD000F30AE005630AF00F7
:1010C0008A11B7208A15A4168A116B248A15A31CCD
:1010D0002D2A8A112A248A1570088316A400710803
:1010E000A50024088312AE00831625088312AF00E2
:1010F0002508F0000030F01BFF30F1008A11BA2201
:101100008A153330F4003330F5002330F600833095
:10111000F7008A11DB228A1570088316A000710877
:10112000A1007208A2007308A30020088312AA007D
:10113000831621088312AB00831622088312AC00A9
:10114000831623088312AD0083162408F0002508B7
:10115000F1008A11BA228A157008F4007108F500AE
:101160007208F6007308F70083162008F0002108C3
:10117000F1002208F2002308F3008A11E1238A1506
:101180007008A6007108A7007208A8007308A900DB
:101190005208F4005308F5005408F6005508F7000B
:1011A0008A11DD218A150030F4000030F50000308E
:1011B000F6008030F7008A11E9248A155608F400F9
:1011C0005708F5005808F6005908F7008A11DB2285
:1011D0008A150A30F400D730F5002330F600783055
:1011E000F7008A11DB228A155A08F4005B08F50023
:1011F0005C08F6005D08F7008A11DD218A15700889
:10120000DA007108DB007208DC007308DD0070088A
:10121000F4007108F5007208F6007308F70000305A
:10122000F0000030F1007F30F2008630F3008A11C8
:1012300099248A15013003180030F0007008031952
:101240002A290030DA000030DB007F30DC008630F5
:10125000DD004C290030F4000030F500FF30F600CE
:101260008630F7005A08F0005B08F1005C08F200D5
:101270005D08F3008A1199248A15013003180030A3
:10128000F000700803194C290030DA000030DB0050
:10129000FF30DC008630DD005208F4005308F50012
:1012A0005408F6005508F7002608F0002708F1005A
:1012B0002808F2002908F3008A11E1238A15620840
:1012C000F4006308F5006408F6006508F7008A1169
:1012D000DB228A150A30F400D730F5002330F600FF
:1012E0007830F7008A11E9248A1570088316A00067
:1012F0007108A1007208A2007308A30020088312DD
:10130000E600831621088312E70083162208831261
:10131000E800831623088312E9002608D200270874
:10132000D3002808D4002908D5002608F000270893
:10133000F1002808F2002908F3008A1159238A15C0
:101340007008F4007108F500F50CF40CF513751B2A
:10135000F517F50CF40CF513751BF5177408F00070
:101360007508F1008A11BA228A154E08F4004F0858
:10137000F5005008F6005108F7008A11DB228A15A3
:101380005A08F4005B08F5005C08F6005D08F700F9
:101390008A11DD218A1583162008F4002108F50042
:1013A0002208F6002308F7008A11DD218A1570084B
:1013B000DE007108DF007208E0007308E1007008C9
:1013C000F4007108F5007208F6007308F7000030A9
:1013D000F0000030F1007F30F2008630F3008A1117
:1013E00099248A15013003180030F00070080319A1
:1013F000022A0030DE000030DF007F30E00086305F
:10140000E1001C2AF401F501F601F7015E08F00085
:101410005F08F1006008F2006108F3008A11992466
:101420008A15013003180030F000700803191C2AD7
:10143000DE01DF01E001E1015E08F0005F08F1007C
:101440006008F2006108F3008A11E7238A1570082A
:10145000EF008A1103268A15A310241E6428013088
:101460008316B0008A113D208A15EF018A110326E8
:081470008A15A50124130800F0
:101478008A11A4278A158A110E278A158A112A2704
:101488008A158A11C2268A1567308316990018159D
:101498008A11CE268A152930FB009630FC007F3051
:1014A800FD00FD0B552AFC0B552AFB0B552A013074
:1014B8008316B0008A113D208A158A11DE268A1506
:1014C8002C2B01308316AD000130AE003C30AF004C
:1014D8008A11B7208A1501308316AD001030AE008E
:1014E8003E30AF008A11B7208A1501308316AD004F
:1014F8000630AE005630AF008A11B7208A156F301B
:101508008316AC008A11B1228A1575308316AC0097
:101518008A11B1228A1574308316AC008A11B1225F
:101528008A15A41D9B2A2417A41323100020382BE6
:1015380001308316AD000130AE003C30AF008A1197
:10154800B7208A1501308316AD001030AE003E304A
:10155800AF008A11B7208A1501308316AD00043018
:10156800AE004330AF008A11B7208A156130831668
:10157800AC008A11B1228A1572308316AC008A1128
:10158800B1228A1567308316AC008A11B1228A15F8
:1015980061308316AC008A11B1228A15A41DDA2A9B
:1015A8002413A41723108A11A2268A15382B013078
:1015B8008316AD000130AE003C30AF008A11B72071
:1015C8008A1501308316AD001030AE003E30AF00F2
:1015D8008A11B7208A1501308316AD000430AE0099
:1015E8004530AF008A11B7208A156C308316AC00DD
:1015F8008A11B1228A1565308316AC008A11B1228E
:101608008A1574308316AC008A11B1228A1572309B
:101618008316AC008A11B1228A156F308316AC008C
:101628008A11B1228A156E308316AC008A11B12254
:101638008A1573308316AC008A11B1228A15A41D4D
:101648002B2B2413A41323148A1181268A15382BD3
:101658004A08003A0319652A4A08013A03199C2ADC
:0C1668004A08023A0319DB2A612A392BD8
:020EB800003404
:020EBA00003402
:020EBC00003400
:080EBE0000340034003400345C
:080EC600003400340034003454
:040ECE0000340034B8
:100ED200493446345334503420342D34203453347E
:060EE20050344F340034CF
:100EE8004C3461346234203443346F346E34743497
:0E0EF80072346F346C3465342034313400347D
:020F06000034B5
:040F0800003400347D
:020F0C000034AF
:080F0E00003400343434853452
:080F1600003400340034003403
:080F1E00003400347034843407
:080F26000034003400340034F3
:080F2E000034003400340034EB
:080F36000034003440347F3424
:080F3E000034003400347D345E
:02400E00022F7F
:00000001FF
