:02000000332C9F
:10000800FF00030E8301C4000A08C5008A017008B6
:10001800A0000B1D1B28BC0A3C080A3A031D18281F
:100028002724BD160130BC000B1163308100200865
:10003800F00045088A00440E8300FF0E7F0E090079
:0A00480000000000000000000800A6
:100052001D3083120313FC009130FD00FD0B2F288D
:06006200FC0B2F28080032
:10006800423083120313FD00FD0B382800000800FE
:1000780083120313CE1B42288612432886164E1B72
:100088004728061248280616CE1A4C2806114D286D
:1000980006154E1A512886105228861441185628DB
:1000A800051557280511851524208511CE195E28B8
:1000B80086125F2886164E196328061264280616CB
:1000C800CE1868280611692806154E186D2886105E
:1000D8006E28861441187228051573280511851590
:1000E80024208511411C7A2829207B2834200800E7
:1000F80083120313FD01F801700803190034740614
:10010800FA00FA1BFD09FB01F41F8C28F409F40A14
:10011800F01F9028F009F00A70087404FA00FA1B1E
:10012800B4287408F802F00D700DF80D7408F8077B
:10013800F00D0630FC00700DF80D74087018F80208
:10014800701CF807F00DFC0B9F28701CF8077B1833
:10015800C228FD1F0034F009F00AF809F80A003433
:10016800F41FBF28F01BBC287008F800F001AD2868
:10017800F001F00A0034F009FB0A9528F80A74081F
:100188007802031DAD28F801F00AF01FAD28FF34EE
:0201980008005D
:10019A00DF28803083120313CB00F228C030CB0053
:1001AA00F2289430CB00F228D430CB00F2288030E9
:1001BA00CB00F228831203134B08013A0319CE2805
:1001CA004B08023A0319D3284B08033A0319D628D5
:1001DA004B08043A0319D928DC284C03F0004B08D1
:1001EA00F0077008CB0041147008CE003C20411083
:0A01FA004D08CE003C20411408001F
:1002040083120313FB01FA01F9018030F800F10CA9
:10021400F00C031C16297408F90775080318750FE8
:10022400FA070318FB0A0310F01F1E297408FA07C3
:1002340075080318750FFB07FB0CFA0CF90CF80C86
:10024400031C09297B08F3007A08F2007908F100FD
:060254007808F00008002C
:10025A00710DF80DF90D7408F8027508031C750F75
:10026A00F902F00DF10D0F30FC00710DF80DF90DCA
:10027A007408701C4629F8027508031C750FF902E8
:10028A004B29F80775080318750FF907F00DF10DDA
:10029A00FC0B3A29701857297408F80775080318CF
:0802AA00750FF90700000800C0
:1002B2008312031341104A08CE003C204114080067
:1002C20083120313CA010A30F4003F08F0007C20B5
:1002D2000A30F4007C207808F00030307007CD003E
:1002E2000A30F4003F08F0007C207808F00030303B
:1002F2007007CA000230CB000C30CC00CD20023097
:10030200CB000D30CC002E30CD00CD200230CB0002
:0E0312000E30CC004A08CD00CD20301008007F
:10032000831603131208013EF000F1010318F10ACD
:1003300083124608F400F50102210630F20070082D
:10034000F4007108F50072080319AB29F50CF40CE0
:10035000F513FF3EA4290430F1007408F000710881
:100360000319B629F00D7010FF3EB029303070052A
:10037000F3007408F0007508F100F10CF00CF113B3
:10038000F10CF00CF113700895000F30970573080D
:0403900097040800C6
:10039400DC29803083120313C600EF29C030C60065
:1003A400EF299430C600EF29D430C600EF298030FD
:1003B400C600EF29831203134608013A0319CB2917
:1003C4004608023A0319D0294608033A0319D329E7
:1003D4004608043A0319D629D9294703F0004608E8
:1003E400F0077008C6007008CE003C204110C90117
:1003F40049084807840000080319082A49084807DF
:1004040084000008CA005921C90AFA2941140800C5
:0E0414008312031343088A0042088200080086
:10042200831603130711831212150C309704080068
:10043200831203137408003A031D282A7508003A30
:10044200031D282AFF30F0007F30F100812A831239
:100452000313FD01F901F801710870040319003456
:1004620071087506FA00FA1BFD09FB01F51F3E2A09
:10047200F409F509F40A0319F50AF11F452AF009EE
:10048200F109F00A0319F10A71087504FA00FA1B5E
:100492005A2A2D217B186D2AFD1F0034F009F1091B
:1004A200F00A0319F10AF809F909F80A0319F90A15
:1004B2000034F51F692AF11B652A7108F9007008DA
:1004C200F800F101F0014D2AF101F001F00A0034C7
:1004D200F109F009FB0A4A2AF80A0319F90A740811
:1004E2007802031D4D2A75087902031D4D2AF90170
:1004F200F801F00A0319F10AF11F4D2A0000FF3436
:020502000800EF
:10050400831603138511051186100611061286122F
:1005140083128511051186120612061186102920F0
:1005240029202920061586148515242085112920C3
:10053400851524208511292085152420851129203D
:1005440086108515242085112920851524208511E0
:1005540006118616851524208511292086128614F5
:1005640085152420851186108515242085112920C0
:1005740085152420851186148515242085112920AC
:1005840086108515242085118616061606158614F0
:0C05940085152420851129204114080041
:0C05A00083120313950117129712080034
:1005AC00831203130618DB2ABD14061CEB2ABD1C90
:1005BC00EB2ABD10BF0A8030193AF00080303F069C
:1005CC0070020318EB2A1930BF008619EE2A3D156C
:1005DC00861DFD2A3D1DFD2A3D11BF0380303F06BF
:1005EC00F0008030003A70020318FD2ABF01BD1ED6
:0805FC00012B6121BD12080072
:100604008312031312149214F93083169200D02229
:08061400C6019021112208002B
:10061C00013083120313CB000130CC002030CD000D
:10062C00CD200130CB001030CC002030CD00CD20BF
:10063C000130CB000C30CC003A30CD00CD203D1E2B
:0C064C00252B0130CE003C20BD1308001F
:10065800831203130618312BBD14BD1C3A2B061C3C
:100668003A2BBD10BE0A0130CE003C2086193D2B26
:100678003D153D1D462B861D462B3D11BE03013001
:10068800CE003C2080303E06F0008030003A7002F8
:100698000318502B0230BE008030023AF000803040
:0C06A8003E0670020318592BBE0108002A
:1006B40083160313981690308312980083168717B5
:1006C400071383128C1E692B1A08F000632B080091
:1006D400013083120313CB000130CC002030CD0055
:1006E400CD200130CB001030CC002030CD00CD2007
:1006F4000130CB000930CC003A30CD00CD203D1E76
:0A070400812B0130CE003C200800DC
:10070E00C9308316031386003330850007309C00F2
:10071E00013083129F000E3083169F000710831244
:10072E000710850186018701E0308B006330810060
:08073E008730831681000800DA
:100746000A228A110A128000840AC20A0319C30AFD
:08075600F003031DA32B0800B2
:10075E00013083120313CB000130CC002030CD00CA
:10076E00CD200130CB001030CC002030CD00CD207C
:10077E000130CB000A30CC003A30CD00CD20023013
:10078E00CB000230CC005330CD00CD206530CA00F6
:10079E0059217430CA0059215030CA0059216F3086
:1007AE00CA0059216930CA0059216E30CA00592138
:1007BE007430CA0059213A30CA0059210230CB0098
:1007CE000F30CC005630CD00CD206121BD16D62283
:1007DE003F08F0000030F01BFF30F100F00DF10D7E
:1007EE007010F00DF10D7010FF30F400F5010221C4
:1007FE006430F4000030F50019227008C000700853
:10080E00C60090213D1EEE2B0130CE003C20BF01D4
:04081E003D1308007E
:1008220082220130CE003C200C30CE003C20013030
:10083200C6000230C7002130C800CA210230C600FB
:0C0842000330C7003130C800CA21080094
:10084E0083120313061B2E2CBD153D12322C861B54
:08085E00322C3D16BD1108000B
:100866004C3083120313A1006130A2006230A30052
:100876002030A4004330A5006F30A6006E30A700DC
:100886007430A8007230A9006F30AA006C30AB003B
:100896006530AC002030AD003130AE00AF01B001A4
:1008A6004930B1004630B2005330B3005030B40086
:1008B6002030B5002D30B6002030B7005330B800D8
:1008C6005030B9004F30BA00BB010130BC00BD0149
:1008D600BE01BF01C001872311240223673083169E
:1008E600990018155A232930FB009630FC007F30FA
:1008F600FD00FD0B7C2CFC0B7C2CFB0B7C2C0130B7
:10090600CE003C202C23052D0130CB000130CC003D
:100916003C30CD00CD200130CB001030CC003E3035
:10092600CD00CD200130CB000630CC005630CD00B6
:10093600CD206F30CA0059217530CA005921743054
:10094600CA005921BD1DAB2C3D17BD133010AF2376
:10095600112D0130CB000130CC003C30CD00CD2034
:100966000130CB001030CC003E30CD00CD20013020
:10097600CB000430CC004330CD00CD206130CA001E
:1009860059217230CA0059216730CA005921613095
:10099600CA005921BD1DD32C3D13BD1730106A2343
:1009A600112D0130CB000130CC003C30CD00CD20E4
:1009B6000130CB001030CC003E30CD00CD200130D0
:1009C600CB000430CC004530CD00CD206C30CA00C1
:1009D60059216530CA0059217430CA005921723034
:1009E600CA0059216F30CA0059216E30CA005921F8
:1009F6007330CA005921BD1D042D3D13BD1330149B
:100A06000E23112D3E08003A0319872C3E08013AA1
:100A16000319AC2C3E08023A0319D42C852C122D4E
:02400E00022F7F
:00000001FF
