:040000008A15542CDD
:10000800FF00030E83018316AE000A08AF008A01C1
:1000180070088312A1000B1D2528E70A6E1B1928FA
:10002800EE1B1928681819281A28E81467080A3ACC
:10003800031D22288A1548248A11E7010B11633011
:1000480081002108F00083162F088A002E0E8300F5
:06005800FF0E7F0E0900FF
:10005E001D3083120313FC009130FD00FD0B35287B
:06006E00FC0B3528080020
:0E007400F201F101F001F801F3010030080083
:0A008200000000000000000008006C
:08008C00FA1FF2130030080016
:100094007B15FB1F54280130F300F201F101F0013C
:0800A400FA0DF20CFF30080018
:1000AC00423083120313FD00FD0B5A280000080098
:1000BC00FB14FB1F6828FF30F300F200F100F00086
:0800CC00FA0DF20CFF300800F0
:1000D40083160313BE1B712883128612732883129E
:1000E400861683163E1B7928831206127B288312F8
:1000F40006168316BE1A81288312061183288312DA
:10010400061583163E1A8928831286108B288312BB
:1001140086146F188F280515902805118515412020
:1001240085118316BE199928831286129B2883127F
:10013400861683163E19A12883120612A328831259
:1001440006168316BE18A92883120611AB2883123B
:10015400061583163E18B12883128610B32883121D
:1001640086146F18B7280515B82805118515412080
:0E01740085116F1CBF282F20C02856200800C0
:10018200710DF80DF90D7408F8027508031C750F4E
:10019200F902F00DF10D0F30FC00710DF80DF90DA3
:1001A2007408701CDA28F8027508031C750FF9022E
:1001B200DF28F80775080318750FF907F00DF10D20
:1001C200FC0BCE287018EB287408F8077508031882
:0801D200750FF9070000080099
:1001DA007C182329FC18F4287C194229ED28A0014F
:1001EA007208031D14297108F2007008F1007808DA
:1001FA00F000F801A0157208031D14297108F20015
:10020A007008F100F001A01120167208031D1429CC
:10021A007108F200F101A0157208031936292008A5
:10022A00F302031D031C3A290310F21B2329F80DBC
:10023A00F00DF10DF20DF30B1A293A297B1B701CF4
:10024A003E29F81F3E29F00A0319F10A0319F20A96
:10025A00031D3E29F20CF10CF00CF30A0319422992
:10026A003E290130FC003A2045290230FC004A2090
:10027A0045290430FC00462045290830FC005E2050
:04028A000000080068
:0E028E001D3083120313FD00FD0B4B290800E9
:10029C00A0017208031D63297108F2007008F100B7
:1002AC00F001A0157208031D63297108F200F10119
:1002BC00A01120167208031971292008F302031DDE
:1002CC00031C75290310F21B7929F00DF10DF20DA9
:1002DC00F30B692975290130FC003A207C29023086
:0E02EC00FC004A207C290430FC00462008005B
:0602FA00FB15FF300800B7
:10030000831203136F1083163B08BE006A206F141C
:020310000800E3
:1003120083120313FB01FA01F9018030F800F10C9A
:10032200F00C031C9D297408F90775080318750F52
:10033200FA070318FB0A0310F01FA5297408FA072D
:1003420075080318750FFB07FB0CFA0CF90CF80C77
:10035200031C90297B08F3007A08F2007908F10067
:060362007808F00008001D
:100368007B14FB1FBF29F201FA1FFF30F200F100D6
:0A037800F000FA0DF20CFF3008004F
:10038200C730831203139F052208F000F00D70108E
:10039200F00D7010F00D701070089F0447211F15AA
:1003A2001F1DD5290000D1291E08F100F001831676
:0A03B2001E08F0040030F1040800FA
:1003BC00F029803083160313BB00032AC030BB0026
:1003CC00032A9430BB00032AD430BB00032A8030AC
:1003DC00BB00032A831603133B08013A0319DF29D8
:1003EC003B08023A0319E4293B08033A0319E729AD
:1003FC003B08043A0319EA29ED293C03F0003B08B9
:10040C00F0077008BB0083126F1470088316BE00CF
:10041C006A206F1083163D08BE006A206F14080016
:10042C00831203137408003A031D252A7508003A39
:10043C00031D252AFF30F0007F30F1007E2A831245
:10044C000313FD01F901F80171087004031900345C
:10045C0071087506FA00FA1BFD09FB01F51F3B2A12
:10046C00F409F509F40A0319F50AF11F422AF009F7
:10047C00F109F00A0319F10A71087504FA00FA1B64
:10048C00572AC1207B186A2AFD1F0034F009F10994
:10049C00F00A0319F10AF809F909F80A0319F90A1B
:1004AC000034F51F662AF11B622A7108F9007008E6
:1004BC00F800F101F0014A2AF101F001F00A0034D0
:1004CC00F109F009FB0A472AF80A0319F90A74081A
:1004DC007802031D4A2A75087902031D4A2AF9017C
:1004EC00F801F00A0319F10AF11F4A2A0000FF343F
:0204FC000800F6
:1004FE008312031372087606A000F801F90173083F
:10050E007702031CA22A7708FD007308F7007D0806
:10051E00F3007608FD007208F6007D08F2007508FB
:10052E00FD007108F5007D08F1007408FD007008EB
:10053E00F4007D08F000770803191B2B7208FA00EF
:10054E00F217F61777087302F7000319D52A083049
:10055E007702031CCB2AF7007408F9007508F40023
:10056E007608F500F60108307702031CCB2AF70057
:10057E007408F9007508F400F50108307702031CC1
:10058E00CB2A7A08F2001B2B77080319D52A031001
:10059E00F60CF50CF40CF90CF70BCE2AA01FE22A80
:1005AE00F909F409F509F609F90A0319F40A031908
:1005BE00F50A0319F60A7908F80774080318740F78
:1005CE00F00775080318750FF10776080318760FF4
:1005DE00F207A01BFB2A031C0B2BF20CF10CF00CE8
:1005EE00F80CF30F0B2B172B03180F2BF809F00930
:1005FE00F109F209F80A0319F00A0319F10A0319AD
:10060E00F20A8030FA06132B0130FC00ED201D2B70
:10061E000230FC00ED201D2B0430FC004E211D2B62
:10062E000830FC005E201D2B0030FC00000008008E
:10063E0083120313FD01F8017008031900347406C8
:10064E00FA00FA1BFD09FB01F41F2F2BF409F40A23
:10065E00F01F332BF009F00A70087404FA00FA1B2D
:10066E00572B7408F802F00D700DF80D7408F8078A
:10067E00F00D0630FC00700DF80D74087018F802BD
:10068E00701CF807F00DFC0B422B701CF8077B1842
:10069E00652BFD1F0034F009F00AF809F80A003442
:1006AE00F41F622BF01B5F2B7008F800F001502B2B
:1006BE00F001F00A0034F009FB0A382BF80A74082E
:1006CE007802031D502BF801F00AF01F502BFF3457
:0206DE00080012
:1006E00083160313B701B8015C2C0230BB000C3039
:1006F000BC000A30F40083123708F0001F230A30D0
:10070000F4001F237808F000303070078316BD0016
:10071000DE2102308316BB000D30BC002E30BD0040
:10072000DE2102308316BB000E30BC000A30F4001C
:1007300083123708F0001F237808F000303070076C
:100740008316BD00DE21692C02308316BB00033006
:10075000BC006430F4000030F50083122908F0007A
:100760002A08F10016220A30F4000030F5001622A3
:100770007808F0007908F100303070078316BD006A
:10078000DE210A30F4000030F5002908F0002A08C4
:10079000F10016220A30F4000030F5001622780825
:1007A000F0007908F100303070078316BB0080211B
:1007B0000A30F4000030F5002908F0002A08F100A2
:1007C00016227808F0007908F1003030700783169F
:1007D000BB00802102308316BB000B30BC000A3006
:1007E000F40083123708F0001F230A30F4001F239F
:1007F0007808F000303070078316BD00DE212E30FF
:100800008316BB0080210A30F4003708F0001F2354
:100810007808F000303070078316BB008021692C07
:1008200083120A30F4003708F0001F237808F00024
:10083000303070078316B8000A30F400831237088E
:10084000F0001F230A30F4001F237808F000303036
:10085000F00770088316B7000230BB000230BC00FE
:100860007008BD00DE2183163808BB0080212A30C5
:100870008316BB00802136308316BB0080212E30CA
:100880008316BB00802132308316BB0080213530B7
:100890008316BB00802102308316BB000C30BC00E5
:1008A0003708BD00DE212E308316BB008021831661
:1008B0003808BB008021692C83163608563A031984
:1008C000752B3608433A0319A42B3608453A031909
:0408D000102C0800E0
:1008D400831203137408003A031D852C7508003A2B
:1008E400031D852C7608003A031D852C7708003AF1
:1008F400031D852CFF30F000FF30F1007F30F20043
:10090400FF30F300202D8312031377080319142DED
:1009140073080319172D720876068039FA00F21746
:10092400F617A0017208F8007108FC007008FD00B9
:100934007408FD027508031C750FFC027608031C7D
:10094400760FF802F801FC01FD01031CB02C031022
:10095400F20CF10CF00CF80C0130A0007708F30253
:10096400031CBA2C7E302007F30703181A2DBF2C62
:100974007E302007F307031C1D2D1830FA07FD0DE8
:10098400FC0DF80DF00DF10DF20DA00D7408F00240
:100994007508031C750FF1027608031C760FF2022A
:1009A400760DA004201CD82C7D14E32C7408F007C9
:1009B40075080318750FF10776080318760AF2070D
:1009C4007D10FA031F307A05031DC12C7B1B7D1C8F
:1009D4000A2D0310F00DF10DF20DA00D7408F002B4
:1009E4007508031C750FF1027608031C760FF202DA
:1009F400760D20040139FD070318FC0A0319F80ACF
:100A0400031D0A2DF80CFC0CFD0CF30A03191A2D16
:100A1400FA1FF8137808F2007C08F1007D08F00052
:100A240000301F2D01307D211F2D02303A201F2D53
:0E0A340004305E201F2D08304A20000008000C
:100A4200831203137008F8007108F000F101F2013B
:100A5200F301FB01FC019630F300FA01F01F372D80
:100A6200F809F009F80A0319F00AFA177008F100F8
:0C0A72007808F000F801F2014E210800A5
:100A7E0083120313FB01FC01FA01730803196C2D99
:100A8E00FA13F2178630F302F31B502D0319502D73
:100A9E006E2DF309F30A08307302031C5D2DF3006B
:100AAE00F20DF2017308031D0310642D7308031970
:100ABE00642D0310F20CF30B602D7B1B721C6C2D3E
:100ACE00031C6C2DF20A0319732DF101762D7B1484
:100ADE00FB1F792DF101792D0130FC007B2D0030AB
:100AEE00FC007B2DFF30FC00FC0803197F2DB42188
:060AFE007208F000080080
:0C0B0400831203138030F6067F220800E5
:100B100083160313B801B9018312D60A5608073C9D
:100B20000318932DD6015608F000F00D70107008D0
:100B3000573E8316BA008312A201C1213A088400ED
:100B4000700880007108840A8000B601B701803007
:100B50003706F00080307002031DB02D08303602D9
:100B60000318C72D3608F0003708F100F00DF10D1D
:100B700070107008573E84000008B807840A000807
:100B80000318013EB907B60A0319B70AA72D0330A7
:100B9000F2003808F0003908F10072080319D72D67
:100BA000F10CF00CF113711BF117FF3ECE2D080074
:100BB00083120313FB017308031D770803192F2EFB
:100BC00072087606FA007708F3077E30031CEC2DD6
:100BD000F3020318322EEF2DF302031C352E720898
:100BE000F8007108FC007008FD00F817F6170310F4
:100BF000F201F101F0011830A0007D1C092E7408EB
:100C0000F00775080318750FF10776080318760FBB
:100C1000F207F20CF10CF00CF80CFC0CFD0C0310BC
:100C2000A00BFD2DF21B192EF80DF00DF10DF20D9C
:100C3000F3037B1B701C2B2EF81F2B2EF00A0319BD
:100C4000F10A0319F20A031D2B2EF20CF10CF00C21
:100C5000F30A0319322EFA1FF2130030372E013037
:100C60003A20372E02305E20372E04304A20000012
:020C700008007A
:100C720083120313FA017308031D7A147708031D04
:100C8200FA147A080319852E033A0319502E7A189A
:100C92004D2EF61F832E812EF21F812E832E720877
:100CA2008039FA00F21376088039F6137A060319AE
:100CB2005E2E7A080319812E832E77087302031998
:100CC200652E031C792E7D2E7608720203196C2E76
:100CD200031C792E7D2E750871020319732E031CD5
:100CE200792E7D2E740870020319852E03187D2E2D
:100CF200FA080319832E812EFA080319812E832EF6
:100D02000314080003100800031403150800080068
:100D1200831603131208013EF000F1010318F10AD1
:100D22003608F400F50189210630F2007008F4005B
:100D32007108F50072080319A32EF50CF40CF513D3
:100D4200FF3E9C2E0430F1007408F0007108031974
:100D5200AE2EF00D7010FF3EA82E30307005F3005D
:100D62007408F0007508F100F10CF00CF113F10CAD
:100D7200F00CF113700895000F3097057308970473
:020D8200080067
:100D840083120313FB0173080319FF2E7208FA0080
:100D9400F2178E30F302F31F022FF309F30A08301F
:100DA4007302031CE52EF300F10D7208F100F20149
:100DB40008307302031CE52EF300F10DF1017308F2
:100DC400031D0310ED2E73080319ED2E0310F20C0E
:100DD400F10CF30BE82E7B1B711CF72E031CF72E72
:100DE400F10A0319F20AF21B0E2FFA1F112FF2094E
:100DF400F109F10A0319F20A112FF201F101112F7D
:100E04007B14FB1F142FF201FA1F142FFF30F20082
:100E1400F100FA0DF20C142F0130FC00162F0030F3
:100E2400FC00162FFF30FC00FC0803191A2FB42114
:0A0E34007108F0007208F1000800D8
:100E3E00831203130618242FEE14061C352FEE1CF6
:100E4E00352FEE10B70A8030323AF0008030370678
:100E5E0070020318342F3230B700EE168619382F71
:100E6E006E15861D482F6E1D482F6E11B7038030EC
:100E7E003706F0008030003A70020318472FB70192
:100E8E00EE16EE1E512F56308316B60070238312C7
:060E9E000313EE12080030
:100EA400831203130618572FEE1486195A2F6E1542
:100EB400061C6B2FEE1C6B2FEE10B70A8030193A0C
:100EC400F00080303706700203186A2F1930B7001B
:100ED400EE16861D722F6E1D722F6E11B703EE165D
:100EE400EE1E792FEE1245308316B60070230800EB
:100EF4008312031306187F2FEE14061CA92FEE1C71
:100F0400A92FEE100A302907F1002A080318013E20
:100F1400F2007108A9007208AA00EE168030F000F1
:100F2400803072067002031D992F7108FA3C031871
:100F34009E2FFA30A900AA010A30F4000030F5000F
:100F44002908F0002A08F10016227008B700861953
:100F5400AC2F6E15861DD62F6E1DD62F6E110A303E
:100F64002902F1000030031C013E2A02F20071083C
:100F7400A9007208AA00EE1680307206F0008030D4
:100F84007002031DC72F003071020318CB2FA90173
:100F9400AA010A30F4000030F5002908F0002A08FC
:100FA400F10016227008B700EE1EDD2FEE1243305A
:080FB4008316B600702308004B
:0E0FBC00831603132D088A002C0882000800FB
:0C0FCA0083120313950117129712080000
:100FD600831603130711831212150C3097040800A9
:101000008A1188258A157008B4007108B500340863
:101010008312A700831635088312A8003708F00052
:101020000030F01BFF30F1008A1121258A151430A1
:10103000F400AE30F5002330F6008330F7008A115B
:10104000D8258A1570088316B0007108B10072089F
:10105000B2007308B30030088312A300831631086E
:101060008312A400831632088312A5008316330866
:101070008312A60083163408F0003508F1008A11A7
:1010800021258A157008F4007108F5007208F60031
:101090007308F70083163008F0003108F1003208B9
:1010A000F2003308F3008A1182258A157008B30014
:1010B0007108B4007208B5007308B6003808F4006F
:1010C0003908F5003A08F6003B08F7008A117F223C
:1010D0008A150030F4000030F5000030F600803052
:1010E000F7008A116A248A152B08F4002C08F500F1
:1010F0002D08F6002E08F7008A11D8258A150A3027
:10110000F400D730F5002330F6007830F7008A116C
:10111000D8258A152F08F4003008F5003108F600AC
:101120003208F7008A117F228A157008AF00710813
:10113000B0007208B1007308B2007008F4007108C2
:10114000F5007208F6007308F7000030F000003078
:10115000F1007F30F2008630F3008A1139268A15BB
:10116000013003180030F00070080319C028003067
:10117000AF000030B0007F30B1008630B200E2280E
:101180000030F4000030F500FF30F6008630F70044
:101190002F08F0003008F1003108F2003208F300A7
:1011A0008A1139268A15013003180030F0007008C2
:1011B0000319E2280030AF000030B000FF30B1006A
:1011C0008630B2003808F4003908F5003A08F60015
:1011D0003B08F7003308F0003408F1003508F2004E
:1011E0003608F3008A1182258A1583162008F40038
:1011F0002108F5002208F6002308F7008A11D825F7
:101200008A150A30F400D730F5002330F600783024
:10121000F7008A116A248A1570088316B0007108D5
:10122000B1007208B2007308B3003008A40031089E
:10123000A5003208A6003308A70083123308B800BF
:101240003408B9003508BA003608BB003308F0008E
:101250003408F1003508F2003608F3008A11C2267E
:101260008A157008F4007108F500F50CF40CF513FC
:10127000751BF517F50CF40CF513751BF5177408B1
:10128000F0007508F1008A1121258A1583162808B7
:10129000F4002908F5002A08F6002B08F7008A1147
:1012A000D8258A152F08F4003008F5003108F6001B
:1012B0003208F7008A117F228A1583163008F4005D
:1012C0003108F5003208F6003308F7008A117F2252
:1012D0008A157008E9007108EA007208EB007308CB
:1012E000EC007008F4007108F5007208F60073084D
:1012F000F7000030F0000030F1007F30F20086305F
:10130000F3008A1139268A15013003180030F000E5
:101310007008031994290030E9000030EA007F309A
:10132000EB008630EC00AE29F401F501F601F7017F
:101330006908F0006A08F1006B08F2006C08F3001D
:101340008A1139268A15013003180030F000700820
:101350000319AE29E901EA01EB01EC016908F0008B
:101360006A08F1006B08F2006C08F3008A113F254F
:101370008A1570088316B6008A1189268A15080016
:10138000D229803083160313B000E529C030B000A5
:10139000E5299430B000E529D430B000E52980304B
:1013A000B000E529831603133008013A0319C12957
:1013B0003008023A0319C6293008033A0319C9292B
:1013C0003008043A0319CC29CF293103F000300842
:1013D000F0077008B0007008BE008A116A208A15F4
:1013E0006F108316B3013308320784000008031915
:1013F000042A3308320784000008BB008A118021C8
:0E1400008A158316B30AF32983126F140800AD
:10140E008316031385110511861006110612861216
:10141E0083128511051186120612061186108A1185
:10142E002F208A158A112F208A158A112F208A15AE
:10143E000615861485158A1141208A1585118A1183
:10144E002F208A1585158A1141208A1585118A113A
:10145E002F208A1585158A1141208A1585118A112A
:10146E002F208A15861085158A1141208A1585111F
:10147E008A112F208A1585158A1141208A1585110A
:10148E000611861685158A1141208A1585118A1135
:10149E002F208A158612861485158A1141208A15E9
:1014AE008511861085158A1141208A1585118A119C
:1014BE002F208A1585158A1141208A1585118614CB
:1014CE0085158A1141208A1585118A112F208A15BA
:1014DE00861085158A1141208A15851186160616E5
:1014EE000615861485158A1141208A1585118A11D3
:0814FE002F208A156F1408006D
:101506008316031398169030831298008316871754
:10151600071383128C1E922A1A08F0008C2A0800E0
:10152600013083160313BB000130BC002030BD0020
:101536008A11DE218A1501308316BB001030BC00EB
:101546002030BD008A11DE218A1501308316BB00CA
:101556000B30BC003A30BD008A11DE218A150230FC
:101566008316BB000630BC007530BD008A11DE2133
:101576008A1543308316BB008A1180218A150230F2
:101586008316BB000930BC003D30BD008A11DE2148
:101596008A1502308316BB000E30BC005630BD00E3
:1015A6008A11DE218A15EE168A117A278A15831288
:1015B6000313E81CE02A0020E8106E1ED72A01302B
:1015C6008316BE008A116A208A158316B6018A110F
:0E15D60089268A15A901AA01B701EE130800A3
:1015E4008312031312149214F930831692008A1191
:1015F400E5278A158316B6018A1189268A158A1168
:06160400EB278A15080027
:10160A008312031306180A2BEE14EE1C162B061C63
:10161A00162BEE10ED0A01308316BE008A116A20DD
:10162A008A158619192B6E156E1D252B861D252BDD
:10163A006E11ED0301308316BE008A116A208A15E5
:10164A0080306D06F0008030003A700203182F2BAC
:10165A000230ED008030023AF00080306D067002F0
:08166A000318382BED01080004
:10167200013083160313BB000130BC002030BD00D3
:101682008A11DE218A1501308316BB001030BC009E
:101692002030BD008A11DE218A1501308316BB007D
:1016A2000C30BC003A30BD008A11DE218A150230AE
:1016B2008316BB000A30BC003D30BD008A11DE211A
:1016C2008A1502308316BB000F30BC005630BD00B5
:1016D2008A11DE218A15EE168A1152278A15831283
:1016E2000313E81C762B0020E8106E1E6D2B0130D0
:1016F2008316BE008A116A208A158316B6018A11E2
:0A17020089268A15EE13B7010800CE
:10170C00072201308316BE008A116A208A150C301C
:10171C008316BE008A116A208A1501308316B00028
:10172C000230B1004730B200C02102308316B00045
:0C173C000330B1003C30B200C0210800B6
:10174800C9308316031386003330850007309C00A8
:10175800013083129F008E3083169F00071083127A
:101768000710850186018701E0308B006330810016
:08177800873083168100080090
:10178000013083160313BB000130BC002030BD00C4
:101790008A11DE218A1501308316BB001030BC008F
:1017A0002030BD008A11DE218A1501308316BB006E
:1017B0000A30BC003A30BD008A11DE218A150230A1
:1017C0008316BB000230BC005330BD008A11DE21FD
:1017D0008A1565308316BB008A1180218A15743002
:1017E0008316BB008A1180218A1550308316BB00F6
:1017F0008A1180218A156F308316BB008A118021DF
:101800008A1569308316BB008A1180218A156E30D3
:101810008316BB008A1180218A1574308316BB00A1
:101820008A1180218A153A308316BB008A118021E3
:101830008A1502308316BB000F30BC005630BD0045
:101840008A11DE218A15EE168A111F278A15E81CD7
:101850002B2C0020E8106E1E242C01308316BE00B5
:101860008A116A208A158316B6018A1189268A157B
:06187000B7016E13080031
:101876008A11DE278A150A128000840AAC0A031927
:0A188600AD0AF003031D3B2C08001F
:1018900083120313061B4F2CEE156E12532C861B5E
:0818A000532C6E16EE11080036
:1018A8009425A4238623F2226730831699001815FD
:1018B80083222930FB009630FC007F30FD00FD0BB1
:1018C800632CFC0B632CFB0B632C01308316BE00CE
:1018D8008A116A208A150523342D01308316BB002E
:1018E8000130BC003C30BD008A11DE218A15013070
:1018F8008316BB001030BC003E30BD008A11DE21CB
:101908008A1501308316BB000630BC005630BD0076
:101918008A11DE218A156F308316BB008A11802157
:101928008A1575308316BB008A1180218A15743098
:101938008316BB008A1180218A15EE1DA72C6E170D
:10194800EE136810C023402D01308316BB00013010
:10195800BC003C30BD008A11DE218A150130831697
:10196800BB001030BC003E30BD008A11DE218A1554
:1019780001308316BB000630BC004330BD008A111D
:10198800DE218A1561308316BB008A1180218A15F1
:1019980072308316BB008A1180218A15673083163E
:1019A800BB008A1180218A1561308316BB008A1119
:1019B80080218A15EE1DE42C6E13EE176810932211
:1019C800402D01308316BB000130BC003C30BD0007
:1019D8008A11DE218A1501308316BB001030BC0045
:1019E8003E30BD008A11DE218A1501308316BB0006
:1019F8000430BC004530BD008A11DE218A156C30E8
:101A08008316BB008A1180218A1565308316BB00B6
:101A18008A1180218A1574308316BB008A118021AF
:101A28008A1572308316BB008A1180218A156F309F
:101A38008316BB008A1180218A156E308316BB007D
:101A48008A1180218A1573308316BB008A11802180
:101A58008A15EE1D332D6E13EE1368143923402DAD
:101A68006D08003A0319712C6D08013A0319A82C66
:0C1A78006D08023A0319E52C6F2C412D7B
:101B2800233084004A3083120313F00047308316B1
:101B3800AC000D30AD003B24A03084000830831287
:101B48000313F000F3308316AC000730AD003B24DC
:101B58006D308400023083120313F0009130831635
:101B6800AC000D30AD003B24A83084000430831253
:101B78000313F000FB308316AC000730AD003B24A4
:021B8800080053
:080FE600D834E4340D347C34EE
:080FEE0000340034003400342B
:080FF6008B3496347034803412
:081A8E00003400340034003480
:041A960000340034E4
:041A9A0000340034E0
:081A9E0040343C341934823459
:081AA600003400340034003468
:081AAE00003400340034003460
:021AB6000034FA
:081AB800003400340034003456
:101AC000493446345334503420342D342034533484
:061AD00050344F340034D5
:101AD6004C3461346234203443346F346E3474349D
:0E1AE60072346F346C34653420343134003483
:021AF4000034BC
:101AF6000034003400340034003400340034003440
:101B0600003400340034003400340034003400342F
:021B1600003499
:021B1800003497
:081B1A000034003400340034F3
:021B220000348D
:021B240000348B
:02400E00022F7F
:00000001FF
