:02000000832D4E
:10000800FF00030E8301D3000A08D2008A0170089A
:10001800A1000B1D1C28C00A231F1328C714400861
:100028000A3A031D19287725C0010B116330810096
:100038002108F00052088A00530E8300FF0E7F0E3D
:020048000900AD
:10004A00423083120313FD00FD0B2928000008002B
:10005A001D3083120313FC009130FD00FD0B332881
:06006A00FC0B3328080026
:0A007000000000000000000008007E
:10007A0083120313DC1B43288612442886165C1B52
:10008A004828061249280616DC1A4D2806114E2859
:10009A0006155C1A522886105328861451185728B8
:1000AA00051558280511851538208511DC195F2892
:1000BA008612602886165C196428061265280616B8
:1000CA00DC18692806116A2806155C186E2886103D
:1000DA006F2886145118732805157428051185157B
:1000EA0038208511511C7B282D207C2825200800CA
:1000FA0083120313FD01F801700803190034740612
:10010A00FA00FA1BFD09FB01F41F8D28F409F40A11
:10011A00F01F9128F009F00A70087404FA00FA1B1B
:10012A00B5287408F802F00D700DF80D7408F80778
:10013A00F00D0630FC00700DF80D74087018F80206
:10014A00701CF807F00DFC0BA028701CF8077B1830
:10015A00C328FD1F0034F009F00AF809F80A003430
:10016A00F41FC028F01BBD287008F800F001AE2863
:10017A00F001F00A0034F009FB0A9628F80A74081C
:10018A007802031DAE28F801F00AF01FAE28FF34EA
:02019A0008005B
:08019C00FA1FF2130030080005
:1001A400E428803083120313D900F728C030D90023
:1001B400F7289430D900F728D430D900F7288030B4
:1001C400D900F728831203135908013A0319D328D5
:1001D4005908023A0319D8285908033A0319DB28A5
:1001E4005908043A0319DE28E1285A03F000590893
:1001F400F0077008D90051147008DC003D2051103C
:0A0204005B08DC003D2051140800E7
:0E020E00F201F101F001F801F30100300800E7
:10021C007B15FB1F18290130F300F201F101F001ED
:08022C00FA0DF20CFF3008008E
:10023400A0017208031D2F297108F2007008F10053
:10024400F001A0157208031D2F297108F200F101B5
:10025400A0112016720803193D292008F302031D7A
:10026400031C41290310F21B4529F00DF10DF20D79
:10027400F30B352941290130FC00072148290230BC
:0E028400FC000E2148290430FC00CE200800AA
:100292008312031351105808DC003D20511408004A
:0E02A2001D3083120313FD00FD0B55290800CB
:1002B00083120313FB01FA01F9018030F800F10CFD
:1002C000F00C031C6C297408F90775080318750FE6
:1002D000FA070318FB0A0310F01F74297408FA07C1
:1002E00075080318750FFB07FB0CFA0CF90CF80CDA
:1002F000031C5F297B08F3007A08F2007908F100FB
:060300007808F00008007F
:100306007B14FB1F8E29F201FA1FFF30F200F10069
:0A031600F000FA0DF20CFF300800B1
:10032000FB14FB1F9A29FF30F300F200F100F000EC
:08033000FA0DF20CFF30080089
:1003380083120313D8010A30F4002408F0007D204A
:100348000A30F4007D207808F00030307007DB00B8
:100358000A30F4002408F0007D207808F0003030DE
:100368007007D8000230D9000C30DA00D2200230F1
:10037800D9000D30DA002E30DB00D2200230D9004F
:0C0388000E30DA005808DB00D22008001C
:1003940083120313FB01FC01FA0173080319F72903
:1003A400FA13F2178630F302F31BDB290319DB2956
:1003B400F929F309F30A08307302031CE829F3004E
:1003C400F20DF2017308031D0310EF2973080319DA
:1003D400EF290310F20CF30BEB297B1B721CF7299A
:1003E400031CF729F20A0319FE29F101012A7B14DF
:1003F400FB1F042AF101042A0130FC00062A003004
:10040400FC00062AFF30FC00FC0803190A2A832199
:060414007208F000080070
:0C041A00831203139501171297120800BB
:10042600252A803083120313D400382AC030D40022
:10043600382A9430D400382AD430D400382A803070
:10044600D400382A831203135408013A0319142AD4
:100456005408023A0319192A5408033A03191C2AA4
:100466005408043A03191F2A222A5503F000540897
:10047600F0077008D4007008DC003D205110D70149
:1004860057085607840000080319512A57085607CB
:1004960084000008D8004921D70A432A51140800CD
:1004A600831203137008F8007108F000F101F201DD
:1004B600F301FB01FC019630F300FA01F01F692AF3
:1004C600F809F009F80A0319F00AFA177008F1009A
:0C04D6007808F000F801F2011A2108007B
:1004E200831603130711831212150C3097040800A8
:0E04F2008312031350088A004F08820008008E
:1005000083120313FB017308031D77080319D72A0D
:1005100072087606FA007708F3077E30031C942AE7
:10052000F3020318DA2A972AF302031CDD2A720861
:10053000F8007108FC007008FD00F817F6170310AA
:10054000F201F101F0011830A0007D1CB12A7408FD
:10055000F00775080318750FF10776080318760F72
:10056000F207F20CF10CF00CF80CFC0CFD0C031073
:10057000A00BA52AF21BC12AF80DF00DF10DF20D0A
:10058000F3037B1B701CD32AF81FD32AF00A03192C
:10059000F10A0319F20A031DD32AF20CF10CF00C34
:1005A000F30A0319DA2AFA1FF2130030DF2A0130A6
:1005B0000721DF2A02309021DF2A04300E210000BB
:0205C000080031
:1005C20083120313FB01730803191E2B7208FA002E
:1005D200F2178E30F302F31F212BF309F30A0830CE
:1005E2007302031C042BF300F10D7208F100F201F7
:1005F20008307302031C042BF300F10DF1017308A0
:10060200031D03100C2B730803190C2B0310F20C9F
:10061200F10CF30B072B7B1B711C162B031C162BE7
:10062200F10A0319F20AF21B2D2BFA1F302BF209E1
:10063200F109F10A0319F20A302BF201F101302B10
:100642007B14FB1F332BF201FA1F332BFF30F20016
:10065200F100FA0DF20C332B0130FC00352B003087
:10066200FC00352BFF30FC00FC080319392B8321D9
:0A0672007108F0007208F1000800A2
:10067C00C730831203139F052208F000F00D701091
:10068C00F00D7010F00D701070089F0451211F15A3
:10069C001F1D522B00004E2B1E08F100F00183167B
:0A06AC001E08F0040030F1040800FD
:1006B600831603131208013EF000F1010318F10A34
:1006C60083125408F400F50158210630F200700830
:1006D600F4007108F50072080319762BF50CF40C7A
:1006E600F513FF3E6F2B0430F1007408F00071081B
:1006F6000319812BF00D7010FF3E7B2B30307005F7
:10070600F3007408F0007508F100F10CF00CF11319
:10071600F10CF00CF113700895000F309705730873
:04072600970408002C
:10072A008316031385110511861006110612861207
:10073A0083128511051186120612061186102D20C4
:10074A002D202D20061586148515382085112D207B
:10075A008515382085112D208515382085112D20E5
:10076A0086108515382085112D208515382085118C
:10077A00061186168515382085112D2086128614B5
:10078A0085153820851186108515382085112D206C
:10079A0085153820851186148515382085112D2058
:1007AA0086108515382085118616061606158614B4
:0C07BA008515382085112D2051140800F1
:1007C600831203130618E82BA314061CF92BA31C8B
:1007D600F92BA310A40A8030323AF00080302406A8
:1007E60070020318F82B3230A400A3168619FC2BCE
:1007F6002315861D0C2C231D0C2C2311A4038030DD
:100806002406F0008030003A700203180B2CA40175
:0C081600A316A31E102C9C21A3120800A6
:100822008312031312149214F930831692000D22CC
:08083200D4015B2371220800D0
:10083A00013083120313D9000130DA002030DB00C3
:10084A00D2200130D9001030DA002030DB00D2206B
:10085A000130D9000930DA003A30DB00D220231EF9
:0A086A00342C0130DC003D200800B2
:100874008312031306183F2CA314A31C482C061C34
:10088400482CA310B40A0130DC003D2086194B2CFF
:100894002315231D542C861D542C2311B40301301D
:1008A400DC003D2080303406F0008030003A7002D5
:1008B40003185E2C0230B4008030023AF00080301D
:0C08C400340670020318672CB401080011
:1008D0008316031398169030831298008316871797
:1008E000071383128C1E772C1A08F000712C080055
:1008F000013083120313D9000130DA002030DB000D
:10090000D2200130D9001030DA002030DB00D220B4
:100910000130D9000C30DA003A30DB00D220231E3F
:0C0920008F2C0130DC003D20A3130800E8
:10092C0095230130DC003D200C30DC003D200130F3
:10093C00D4000230D5002530D60013220230D4006A
:0C094C000330D5003530D600132208001F
:10095800C9308316031386003330850007309C00A6
:10096800013083129F000E3083169F0007108312F8
:100978000710850186018701E0308B006330810014
:0809880087308316810008008E
:10099000013083120313D9000130DA002030DB006C
:1009A000D2200130D9001030DA002030DB00D22014
:1009B0000130D9000A30DA003A30DB00D2200230B0
:1009C000D9000230DA005330DB00D2206530D80085
:1009D00049217430D80049215030D80049216F3066
:1009E000D80049216930D80049216E30D80049210A
:1009F0007430D80049213A30D80049210230D9005A
:100A00000F30DA005630DB00D220A316E323C71CD8
:100A1000612DA2013E2370088312C5007108C60033
:100A20007108023C031D162D7008263C03181A2D70
:100A300007141B2D07102408F0000030F01BFF30B6
:100A4000F10053223330F4003330F5002330F60048
:100A50008330F70080227008C8007108C90072084E
:100A6000CA007308CB00E12245087002F300460873
:100A7000031C013E7102F4007308F0007408F100D9
:100A8000F10CF00CF113F10CF00CF1137008CD0027
:100A90007108CE0053224108F4004208F5004308D3
:100AA000F6004408F7008022CA217008CC007008C4
:100AB000FF3C03185D2DFF30CC004C08D4005B23B5
:100AC000C710231E062D0130DC003D20D4015B231E
:060AD000A401231308003D
:100AD60079228A110A128000840ACF0A0319D00AE1
:080AE600F003031D6B2D080055
:100AEE0083120313061B7E2DA3152312822D861B44
:080AFE00822D2316A31108004C
:100B06005A26AC24962411246730831699001815AA
:100B160068242930FB009630FC007F30FD00FD0B79
:100B2600922DFC0B922DFB0B922D0130DC003D200B
:100B36003A241B2E0130D9000130DA003C30DB00AC
:100B4600D2200130D9001030DA003E30DB00D2204E
:100B56000130D9000630DA005630DB00D2206F3083
:100B6600D80049217530D80049217430D800492170
:100B7600A31DC12D2317A3134710C824272E013008
:100B8600D9000130DA003C30DB00D2200130D90038
:100B96001030DA003E30DB00D2200130D9000430BC
:100BA600DA004330DB00D2206130D80049217230B0
:100BB600D80049216730D80049216130D800492141
:100BC600A31DE92D2313A31747101D24272E01303B
:100BD600D9000130DA003C30DB00D2200130D900E8
:100BE6001030DA003E30DB00D2200130D90004306C
:100BF600DA004530DB00D2206C30D8004921653060
:100C0600D80049217430D80049217230D8004921D2
:100C16006F30D80049216E30D80049217330D80092
:100C26004921A31D1A2E2313A31347147824272E14
:100C36003408003A03199D2D3408013A0319C22DD0
:0C0C46003408023A0319EA2D9B2D282ED9
:100CB400233084002C3083120313F0002E30CF0035
:080CC4000630D0006B2508008A
:020C5C00003462
:020C5E00003460
:100C60004C3461346234203443346F346E34743421
:0E0C700072346F346C34653420343134003407
:020C7E00003440
:100C8000493446345334503420342D3420345334D2
:060C900050344F34003423
:020C9600013427
:080C9800003400340034813403
:040CA00000340034E8
:020CA40000341A
:080CA600003400340034003476
:020CAE00003410
:040CB00000340034D8
:02400E00022F7F
:00000001FF
