:040000008A15002835
:10000800FF00030E8301E1000A08E2008A0170087C
:10001800A1000B1D1C28BF0A261F1328A5143F0882
:100028000A3A031D19287627BF010B116330810096
:100038002108F00062088A00610E8300FF0E7F0E1F
:020048000900AD
:0A004A0000000000000000000800A4
:100054001D3083120313FC009130FD00FD0B30288A
:06006400FC0B302808002F
:10006A00423083120313FD00FD0B392800000800FB
:10007A007B15FB1F47280130F300F201F101F00163
:08008A00FA0DF20CFF30080032
:1000920083120313EE1B4F288612502886166E1BFE
:1000A2005428061255280616EE1A592806115A28FF
:1000B20006156E1A5E2886105F288614601863285B
:1000C200051564280511851525208511EE196B2863
:1000D20086126C2886166E1970280612712806166A
:1000E200EE1875280611762806156E187A288610DD
:1000F2007B28861460187F28051580280511851530
:1001020025208511601C87282A2088283520080090
:0E011200F201F101F001F801F30100300800E4
:08012000FA1FF2130030080081
:10012800FB14FB1F9E28FF30F300F200F100F000E3
:08013800FA0DF20CFF30080083
:100140007C18D628FC18A7287C19F528A028A0011F
:100150007208031DC7287108F2007008F1007808C2
:10016000F000F801A0157208031DC7287108F200FD
:100170007008F100F001A01120167208031DC728B5
:100180007108F200F101A01572080319E92820088E
:10019000F302031D031CED280310F21BD628F80DF3
:1001A000F00DF10DF20DF30BCD28ED287B1B701C2B
:1001B000F128F81FF128F00A0319F10A0319F20ACD
:1001C000031DF128F20CF10CF00CF30A0319F528C9
:1001D000F1280130FC008920F8280230FC003D2085
:1001E000F8280430FC009020F8280830FC00942007
:0401F0000000080003
:1001F400A0017208031D0F297108F2007008F100B4
:10020400F001A0157208031D0F297108F200F10115
:10021400A0112016720803191D292008F302031DDA
:10022400031C21290310F21B2529F00DF10DF20DF9
:10023400F30B152921290130FC00892028290230DB
:0E024400FC003D2028290430FC00902008001A
:1002520083120313FD01F8017008031900347406B8
:10026200FA00FA1BFD09FB01F41F3929F409F40A0B
:10027200F01F3D29F009F00A70087404FA00FA1B15
:1002820061297408F802F00D700DF80D7408F80772
:10029200F00D0630FC00700DF80D74087018F802AD
:1002A200701CF807F00DFC0B4C29701CF8077B182A
:1002B2006F29FD1F0034F009F00AF809F80A00342A
:1002C200F41F6C29F01B69297008F800F0015A2903
:1002D200F001F00A0034F009FB0A4229F80A740816
:1002E2007802031D5A29F801F00AF01F5A29FF3437
:0202F200080002
:1002F4008C29803083160313A0009F29C030A000EE
:100304009F299430A0009F29D430A0009F298030D9
:10031400A0009F29831603132008013A03197B299F
:100324002008023A031980292008033A0319832973
:100334002008043A0319862989292103F00020089A
:10034400F0077008A000831260147008EE004920C2
:100354006010831622088312EE00492060140800FE
:100364008312031360106D08EE0049206014080026
:1003740083120313FB01FA01F9018030F800F10C38
:10038400F00C031CCE297408F90775080318750FBF
:10039400FA070318FB0A0310F01FD6297408FA079A
:1003A40075080318750FFB07FB0CFA0CF90CF80C15
:1003B400031CC1297B08F3007A08F2007908F100D4
:0603C4007808F0000800BB
:1003CA008312031372087606A000F801F901730874
:1003DA007702031C082A7708FD007308F7007D08D6
:1003EA00F3007608FD007208F6007D08F200750831
:1003FA00FD007108F5007D08F1007408FD00700821
:10040A00F4007D08F00077080319812A7208FA00BF
:10041A00F217F61777087302F70003193B2A083018
:10042A007702031C312AF7007408F9007508F400F2
:10043A007608F500F60108307702031C312AF70026
:10044A007408F9007508F400F50108307702031CF6
:10045A00312A7A08F200812A770803193B2A031005
:10046A00F60CF50CF40CF90CF70B342AA01F482AE9
:10047A00F909F409F509F609F90A0319F40A03193D
:10048A00F50A0319F60A7908F80774080318740FAD
:10049A00F00775080318750FF10776080318760F29
:1004AA00F207A01B612A031C712AF20CF10CF00C52
:1004BA00F80CF30F712A7D2A0318752AF809F00936
:1004CA00F109F209F80A0319F00A0319F10A0319E2
:1004DA00F20A8030FA06792A0130FC00A020832A29
:1004EA000230FC00A020832A0430FC00FA20832A70
:1004FA000830FC009420832A0030FC000000080029
:10050A007B14FB1F902AF201FA1FFF30F200F10060
:0A051A00F000FA0DF20CFF300800AB
:0E0524001D3083120313FD00FD0B962A080004
:1005320083120313ED010A30F4005108F00029215F
:100542000A30F40029217808F00030307007831651
:10055200A2000A30F40083125108F0002921780821
:10056200F00030307007ED0002308316A0000C302E
:10057200A1007A2102308316A0000D30A1002E3096
:10058200A2007A2102308316A0000E30A10083124D
:0A0592006D088316A2007A2108000C
:10059C0083120313FA017308031D7A147708031DE1
:1005AC00FA147A0803191A2B033A0319E52A7A1854
:1005BC00E22AF61F182B162BF21F162B182B72087B
:1005CC008039FA00F21376088039F6137A0603198B
:1005DC00F32A7A080319162B182B770873020319C0
:1005EC00FA2A031C0E2B122B760872020319012B0C
:1005FC00031C0E2B122B750871020319082B031CFC
:10060C000E2B122B7408700203191A2B0318122BC1
:10061C00FA080319182B162BFA080319162B182B8A
:10062C000314080003100800031403150800080045
:10063C0083160313851105118610061106128612F6
:10064C0083128511051186120612061186102A20B6
:10065C002A202A20061586148515252085112A2086
:10066C008515252085112A208515252085112A2000
:10067C0086108515252085112A20851525208511A4
:10068C00061186168515252085112A2086128614BA
:10069C0085152520851186108515252085112A2084
:1006AC0085152520851186148515252085112A2070
:1006BC0086108515252085118616061606158614B6
:0C06CC008515252085112A2060140800E7
:0C06D800831203139501171297120800FB
:1006E40083120313FB017308031D77080319C92B35
:1006F40072087606FA007708F3077E30031C862B0F
:10070400F3020318CC2B892BF302031CCF2B7208A2
:10071400F8007108FC007008FD00F817F6170310C4
:10072400F201F101F0011830A0007D1CA32B740824
:10073400F00775080318750FF10776080318760F8C
:10074400F207F20CF10CF00CF80CFC0CFD0C03108D
:10075400A00B972BF21BB32BF80DF00DF10DF20D3E
:10076400F3037B1B701CC52BF81FC52BF00A031960
:10077400F10A0319F20A031DC52BF20CF10CF00C5B
:10078400F30A0319CC2BFA1FF2130030D12B0130DA
:100794008920D12B02309420D12B04303D2000003D
:0207A40008004B
:1007A600831203137008F8007108F000F101F201DA
:1007B600F301FB01FC019630F300FA017008F10029
:0C07C6007808F000F801F201FA200800A9
:1007D200831203130618EE2BA614061CFF2BA61C6D
:1007E200FF2BA610D10A8030193AF0008030510652
:1007F20070020318FE2B1930D100A6168619022C9E
:100802002615861D122C261D122C2611D10380308E
:100812005106F0008030003A70020318112CD10109
:0C082200A616A61E162C9922A61208008D
:10082E0083120313FB0173080319542C7208FA0088
:10083E00F2178E30F302F31F572CF309F30A083028
:10084E007302031C3A2CF300F10D7208F100F20151
:10085E0008307302031C3A2CF300F10DF1017308FA
:10086E00031D0310422C73080319422C0310F20CC3
:10087E00F10CF30B3D2C7B1B711C4C2C031C4C2CD4
:10088E00F10A0319F20AF21B632CFA1F662CF20905
:10089E00F109F10A0319F20A662CF201F101662C34
:1008AE007B14FB1F692CF201FA1F692CFF30F2003A
:1008BE00F100FA0DF20C692C0130FC006B2C0030AB
:1008CE00FC006B2CFF30FC00FC0803196F2C8522FA
:0A08DE007108F0007208F100080034
:1008E800862C803083120313E900992CC030E9006C
:1008F800992C9430E900992CD430E900992C803057
:10090800E900992C831203136908013A0319752C1D
:100918006908023A03197A2C6908033A03197D2CED
:100928006908043A0319802C832C6A03F0006908CB
:10093800F0077008E9007008EE0049206010EC012B
:100948006C086B07840000080319B22C6C086B074D
:1009580084000008ED00B221EC0AA42C6014080001
:10096800831203137008F8007108F000F101F20116
:10097800F301FB01FC019630F300FA01F01FCA2CC9
:10098800F809F009F80A0319F00AFA177008F100D3
:0C0998007808F000F801F201FA200800D5
:0E09A400831203135F088A005E0882000800B9
:1009B20083120313FB01FC01FA0173080319062DCC
:1009C200FA13F2178630F302F31BEA2C0319EA2C0E
:1009D200082DF309F30A08307302031CF72CF30005
:1009E200F20DF2017308031D0310FE2C73080319A4
:1009F200FE2C0310F20CF30BFA2C7B1B721C062D3F
:100A0200031C062DF20A03190D2DF101102D7B1482
:100A1200FB1F132DF101132D0130FC00152D0030A9
:100A2200FC00152DFF30FC00FC080319192D85224E
:060A32007208F00008004C
:100A3800C730831203139F052208F000F00D7010D1
:100A4800F00D7010F00D701070089F0492221F15A1
:100A58001F1D302D00002C2D1E08F100F0018316FB
:0A0A68001E08F0040030F10408003D
:100A7200831603131208013EF000F1010318F10A74
:100A820083126908F400F501BA210630F2007008F9
:100A9200F4007108F50072080319542DF50CF40CDA
:100AA200F513FF3E4D2D0430F1007408F00071087B
:100AB20003195F2DF00D7010FF3E592D3030700577
:100AC200F3007408F0007508F100F10CF00CF1135A
:100AD200F10CF00CF113700895000F3097057308B4
:040AE200970408006D
:100AE600831603130711831212150C30970408009E
:0C0AF600831203138030F606E52108008F
:100B02008312031312149214F930831692006C2389
:080B1200E901392573250800F3
:100B1A00013083160313A0000130A1002030A20087
:100B2A007A2101308316A0001030A1002030A200E3
:100B3A007A2101308316A0000930A1003A30A200C0
:0E0B4A007A21261EA62D0130EE00492008005B
:100B5800831203130618B12DA614A61CBA2D061C61
:100B6800BA2DA610BA0A0130EE0049208619BD2D0B
:100B78002615261DC62D861DC62D2611BA03013041
:100B8800EE00492080303A06F0008030003A7002CA
:100B98000318D02D0230BA008030023AF0008030BD
:0C0BA8003A0670020318D92DBA010800AB
:100BB40083160313981690308312980083168717B0
:100BC400071383128C1EE92D1A08F000E32D080088
:100BD400013083160313A0000130A1002030A200CD
:100BE4007A2101308316A0001030A1002030A20029
:100BF4007A2101308316A0000C30A1003A30A20003
:100C04007A21261E032E0130EE004920A613080087
:100C1400D2248A110A128000840ADE0A0319DF0A28
:080C2400F003031D0A2E080075
:100C2C00C9308316031386003330850007309C00CF
:100C3C00013083129F008E3083169F0007108312A1
:100C4C000710850186018701E0308B00633081003D
:080C5C008730831681000800B7
:100C6400013083160313A0000130A1002030A2003C
:100C74007A2101308316A0001030A1002030A20098
:100C84007A2101308316A0000A30A1003A30A20074
:100C94007A2102308316A0000230A1005330A20052
:100CA4007A216530ED00B2217430ED00B22150306C
:100CB400ED00B2216F30ED00B2216930ED00B221B8
:100CC4006E30ED00B2217430ED00B2213A30ED0007
:100CD400B22102308316A0000F30A1005630A200CA
:100CE4007A21A616E923A51C562FA2011C257008FB
:100CF4008312E7007108E8006708A3006808A400ED
:100D04005108F0000030F01BFF30F100B424333000
:100D1400F4003330F5002330F6008330F7007223FB
:100D24007008E3007108E4007208E5007308E60047
:100D34006308A7006408A8006508A9006608AA005B
:100D44006708F0006808F100D3237008F400710804
:100D5400F5007208F6007308F7006308F0006408F1
:100D6400F1006508F2006608F3007B25172470087B
:100D7400E7007108E8006708CF006808D00067083A
:100D8400F0006808F100B4247008CB007108CC00AE
:100D94007208CD007308CE00F301F4017308F0006B
:100DA4007408F100F10CF00CF113711BF117B42469
:100DB4005608F4005708F5005808F6005908F700DB
:100DC40072237008E3007108E4007208E5007308F8
:100DD400E6006308DA006408DB006508DC006608E6
:100DE400DD006708F0006808F100F10CF00CF11365
:100DF400711BF117F10CF00CF113711BF117B424F2
:100E04003B08F4003C08F5003D08F6003E08F700F6
:100E140072236308F4006408F5006508F6006608A8
:100E2400F700E5217008D2007108D3007208D400DD
:100E34007308D5007008F4007108F5007208F60014
:100E44007308F7000030F0000030F1007F30F2004A
:100E54008630F300CE22013003180030F000700811
:100E640003193C2F0030D2000030D3007F30D4006F
:100E74008630D5005208F0005308F1005408F200FF
:100E84005508F300D9247008E90039254F08F0000B
:100E94005008F100B4247008CB007108CC0072082B
:100EA400CD007308CE00A510261E742E0130EE006E
:0C0EB4004920E9013925D101261308006E
:100EC0001E230130EE0049200C30EE004920013095
:100ED000E9000230EA002B30EB0074240230E90014
:0C0EE0000330EA004030EB0074240800EE
:100EEC0083120313061B7D2FA6152612812F861B3A
:080EFC00812F2616A611080043
:100F7C00233084003B3083120313F0008230DE00F8
:080F8C000730DF000A2608000F
:101000008A11BE278A158A1116268A158A11602729
:101010008A158A1181258A1567308316990018155B
:101020008A11DA258A152930FB009630FC007F30C2
:10103000FD00FD0B1928FC0B1928FB0B19280130AA
:10104000EE008A1149208A158A11AC258A15E328F9
:1010500001308316A0000130A1003C30A2008A11AB
:101060007A218A1501308316A0001030A1003E308D
:10107000A2008A117A218A1501308316A000063059
:10108000A1005630A2008A117A218A156F30ED0036
:101090008A11B2218A157530ED008A11B2218A15A4
:1010A0007430ED008A11B2218A15A61D5D2826171D
:1010B000A61325108A1132268A15EF2801308316CF
:1010C000A0000130A1003C30A2008A117A218A15CB
:1010D00001308316A0001030A1003E30A2008A111A
:1010E0007A218A1501308316A0000430A100433014
:1010F000A2008A117A218A156130ED008A11B2218D
:101100008A157230ED008A11B2218A156730ED0020
:101110008A11B2218A156130ED008A11B2218A1537
:10112000A61D98282613A61725108A118D258A1525
:10113000EF2801308316A0000130A1003C30A2004E
:101140008A117A218A1501308316A0001030A1007F
:101150003E30A2008A117A218A1501308316A00040
:101160000430A1004530A2008A117A218A156C3022
:10117000ED008A11B2218A156530ED008A11B22185
:101180008A157430ED008A11B2218A157230ED0093
:101190008A11B2218A156F30ED008A11B2218A15A9
:1011A0006E30ED008A11B2218A157330ED008A117C
:1011B000B2218A15A61DE2282613A61325148A112A
:1011C000EA258A15EF283A08003A031928283A0830
:1011D000013A03195E283A08023A0319992824288B
:0211E000F028F5
:040F04000034003481
:020F08000034B3
:020F0A000034B1
:080F0C0000340034003400340D
:100F14004C3461346234203443346F346E3474346A
:0E0F240072346F346C34653420343134003450
:020F3200003489
:080F34000034003470348434F1
:020F3C0001347E
:100F3E00493446345334503420342D342034533411
:060F4E0050344F34003462
:080F54000034003400340034C5
:040F5C000034003429
:020F600000345B
:080F62000034003400340034B7
:080F6A000034003470348334BC
:080F72000034003400340034A7
:02400E00022F7F
:00000001FF
